:020000040800F2
:1000000058040020AD010008DF0F0008B30E0008FF
:10001000DD0F0008B9020008D3110008000000003D
:1000200000000000000000000000000003100008B5
:10003000CD020008000000000110000805100008B3
:10004000C7010008C7010008C7010008C701000870
:10005000C7010008C7010008CF020008C701000857
:10006000C7010008C7010008C7010008C701000850
:10007000C7010008C7010008C7010008C701000840
:10008000C7010008C7010008C70100080000000000
:10009000000000000000000000000000C701000890
:1000A000C7010008C7010008C7010008C701000810
:1000B000CD100008C7010008C7010008C7010008EB
:1000C000C7010008C7010008C7010008C7010008F0
:1000D000C7010008C7010008C701000800000000B0
:1000E000C7010008C7010008C701000800000000A0
:1000F000000000000000000000000000C701000830
:1001000000000000C7010008C7010008C70100087F
:1001100000000000000000000000000000000000DF
:10012000C7010008C7010008C7010008C70100088F
:10013000C7010008000000000000000000000000EF
:10014000000000000000000000000000C7010008DF
:10015000C7010008C7010008C7010008C70100085F
:10016000C7010008C70100080000000000000000EF
:10017000000000000000000000000000000000007F
:1001800000000000C701000800000000000000009F
:10019000C7010008C7010008DFF80CD000F07AF8AA
:1001A00000480047F5110008580400200648804721
:1001B00006480047FEE7FEE7FEE7FEE7FEE7FEE74C
:1001C000FEE7FEE7FEE7FEE7791000089901000868
:1001D0002DE9F05F0546002092469B46884606467C
:1001E000814640241BE0284641464746224600F00F
:1001F00041F853465A46C01A914110D31146184649
:10020000224600F028F82D1A67EB01084F462246D7
:100210000120002100F01FF817EB00094E41201EBD
:10022000A4F10104DFDC484631462A464346BDE8D6
:10023000F09FD2B201E000F8012B491EFBD27047BB
:100240000022F6E710B513460A4604461946FFF7A2
:10025000F0FF204610BD202A04DB203A00FA02F10C
:10026000002070479140C2F1200320FA03F31943A4
:1002700090407047202A04DB203A21FA02F0002146
:10028000704721FA02F3D040C2F1200291400843A6
:1002900019467047064C074D06E0E06840F0010340
:1002A00094E8070098471034AC42F6D3FFF778FF84
:1002B00084130008A4130008FEE700000249002090
:1002C000401C8842FCDB70471C9C010070470120E9
:1002D00000F048B870B5044600F022F90546601CED
:1002E00002D004480078044400F01AF9401BA042F0
:1002F000FAD370BD080000202DE9F041FFF7DEFFC2
:10030000164C20684FF40061154D4E008F00A0B1CF
:10031000206801280FD10022284600F0FCF80022B6
:100320003146284600F0F7F800223946284600F00A
:10033000F2F800202060BDE8F0810022284600F09D
:10034000EAF800223146284600F0E5F80022394656
:10035000284600F0E0F80120ECE700000000002053
:1003600000100240044910B50A68024202D0086039
:10037000FFF7C2FF10BD0000143C01402DE9F84F0B
:10038000DFF860B100224FF001084FF0030A4FF090
:100390000F090BF1040E00BF0B6808FA02F42340AA
:1003A000A3426ED14D68022D01D0122D0ED1D50879
:1003B00000EB850CDCF820505607F70E09FA07F61B
:1003C000B5430E69BE402E43CCF820600668550048
:1003D0000F790AFA05FC07F0030726EA0C06AF407E
:1003E000374307604E68012E05D0022E03D0112E30
:1003F00001D0122E0ED18668CF6826EA0C06AF40D7
:10040000374387604668A6430C79C4F300149440D0
:1004100034434460C6688C6826EA0C06AC4034431A
:10042000C4604C68E40056D52F4C256845F48045DF
:100430002560246822F0030504F4804400942B4CCA
:100440002E19D6F8084895072F0F09FA07F5AC437F
:10045000274DA84201D1002515E0264DA84201D123
:10046000012510E0244DA84201D102250BE0234DC7
:10047000A84201D1032506E0214DA84202D104255E
:1004800001E028E00725BD402543C6F80858DBF801
:1004900000405D464E689C43F60300D51C432C602B
:1004A000DEF8004075464E689C43B60300D51C43F9
:1004B0002C600C4D08352C684E689C43F60200D524
:1004C0001C432C60074D0C352C684E689C43B602CB
:1004D00000D51C432C60521C102AFFF45DAFBDE810
:1004E000F88F0000003C01404438024000300140D9
:1004F000000002400004024000080240000C0240DC
:10050000001002400069084000D001207047426995
:100510004A40426170470AB1816170470904FBE7B4
:100520000148806870470000080000200248816888
:100530000278114481607047080000200B4810B514
:10054000016841F400710160016841F4806101605B
:10055000016841F480710160032000F06DF8002013
:1005600000F006F800F024F8002010BD003C024026
:1005700070B50D4D04464FF47A712878B1FBF0F058
:100580000A490968B1FBF0F000F0C0FA48B9102C34
:1005900007D200222146501E00F02EF800206C6089
:1005A00070BD012070BD0000080000201400002074
:1005B0000A4808B5016841F480410160006800F410
:1005C000804000900548001F016841F080510160A3
:1005D000006800F08050009008BD000044380240E0
:1005E00000F01F02012191404009800000F1E0204D
:1005F000C0F8001170470000F0B40E4B1B680C46A9
:10060000C3F30223C3F10705042D00D90425191DE6
:10061000072901D2002300E0DB1E012606FA05F1BE
:10062000491E214099409E40761E16403143F0BC41
:1006300000F0D6BC0CED00E0064900F007020868A7
:100640004FF6FF03184040EA0220034A10430860B7
:10065000704700000CED00E00000FA052DE9F047BE
:100660000E46050065D0DFF81481D8F80000F7B217
:1006700000F00F00B04207D288F80070D8F80000F0
:1006800000F00F00B04254D128683D4C810712D5CC
:10069000400703D5206840F4E05020602878000728
:1006A00003D5206840F4604020602068A96820F0ED
:1006B000F000084320602878C0072DD030496868D2
:1006C0000839012812D0022813D0032811D0096854
:1006D000890700292DDA216821F0030101432160F7
:1006E000FFF71EFF814641F2883A0EE00968890350
:1006F000EFE709688901ECE7FFF712FFA0EB0901BA
:10070000514502D90320BDE8F0872068696800F0F0
:100710000C00B0EB810FEFD1D8F80010404601F08B
:100720000F01B14207D90770006800F00F00B04216
:1007300001D00120E7E72878400705D52068E9685F
:1007400020F4E050084320602878000706D5206890
:10075000296920F4604040EAC100206000F016F8EA
:100760002168084AC1F30311515CC840064908607A
:100770000020FFF7FDFE0020C5E70000003C02401E
:10078000083802407413000814000020154810B502
:10079000006810F00C02144813D01449042A0FD03A
:1007A000082A0ED10F4C241F2268236802F03F0252
:1007B0005B0207D52068C0F38810A0FB010106E0AA
:1007C000084610BD2168C1F38811A1FB0001002378
:1007D000FFF7FEFC2168C1F30141491C4900B0FB51
:1007E000F1F010BD083802400024F40040787D018B
:1007F0002DE9F84F050076D02878DFF8F8B2BE4C26
:10080000C00749D0DBF800105846C1F38101012927
:1008100008D00068C0F3810002280AD1201D0068BA
:10082000400206D52068800336D568680028E2D0EB
:1008300032E06868B0F5803F10D0B0F5A02F206896
:1008400010D020F480302060206820F480202060C8
:100850006868A0B1FFF764FE06460CE0206840F42B
:100860008030F4E740F480202060F7E7FFF758FE7F
:10087000801B642873D820688003F7D50CE0FFF74D
:100880004FFE064605E000BFFFF74AFE801B6428C6
:10089000F0D820688003F7D42878DFF860828007DA
:1008A0004FF000093ED5DBF80010584611F00C0F50
:1008B00009D00068C0F3810002280BD18D48001FC9
:1008C0000068400206D42068800715D5E868012832
:1008D00009D111E0E868B8B10120C8F80000FFF7BD
:1008E0001FFE064605E002E1FFF71AFE801B022804
:1008F000C0D820688007F7D52068296920F0F80063
:1009000040EAC10020600DE0C8F80090FFF708FE43
:10091000064604E0FFF704FE801B02281FD820686B
:100920008007F7D42878000722D5724E7448696989
:100930006C3671B101210160FFF7F2FD074604E05A
:10094000FFF7EEFDC01B022809D830688007F7D5F5
:100950000EE0C0F80090FFF7E3FD074605E083E0F6
:10096000FFF7DEFDC01B02287ED830688007F7D471
:100970002878400768D5DFF87CA100270AF1380AFB
:10098000DAF80000C0000BD4DAF8001041F0805112
:10099000CAF80010DAF80000012700F0805000903B
:1009A000584E3068C00510D4306840F48070306014
:1009B000FFF7B6FD009005E0FFF7B2FD0099401A81
:1009C000022851D83068C005F6D54A4EA868683666
:1009D00001280FD00528306810D020F001003060C9
:1009E000306820F004003060A868B8B1FFF798FDC7
:1009F00000900FE0306840F00100F4E740F00400A0
:100A00003060F7E7FFF78CFD0099411A41F288301A
:100A1000814264D830688007F4D50EE0FFF780FD8E
:100A2000009007E0FFF77CFD0099411A41F2883001
:100A3000814254D830688007F4D42FB1DAF800101E
:100A400021F08051CAF80010A869C0B3DBF800108B
:100A5000C1F3810102294AD00228484607D0C8F8CC
:100A60006000FFF75DFD00E039E005463AE04746EB
:100A7000C8F86000FFF754FD064604E0FFF750FD9C
:100A8000801B02282BD820688001F7D4D5E9070104
:100A90000843A96A1C4A490802EB01416A6A41EA13
:100AA0008211084395F82C1040EA01611148001F9B
:100AB000016001203866FFF733FD054605E014E0CC
:100AC000FFF72EFD401B022809D820688001F7D5CA
:100AD0000BE000BFFFF724FD401B022802D90320D2
:100AE000BDE8F88F20688001F4D40020F8E70120E9
:100AF000F6E7000008380240003802400000474294
:100B0000800E4742007000400000FFFF10B5401EFD
:100B1000B0F1807F01D3012010BD4FF0E02460616F
:100B20000F21601700F05CFA0020A061072020610F
:100B3000002010BD7047704730B590F83820012A6A
:100B400020D0012280F83820022380F83930036851
:100B50005C6824F070045C6003685C680D682C437A
:100B60005C6003689C6824F080049C6003689C6857
:100B700049680C439C6080F83920002180F83810C7
:100B8000084630BD022030BD10B5040003D094F8F3
:100B9000390010B107E0012010BD002084F83800B2
:100BA000204600F00DF8022084F83900211D20684D
:100BB00000F092FA012084F83900002010BD0000F6
:100BC00008B50068B0F1804F08D10548016841F0D0
:100BD00001010160006800F00100009008BD000004
:100BE000403802400168CA6842F00102CA600068E9
:100BF000016841F0010101600020704770B50446B2
:100C000090F83800012817D0012584F838500220C8
:100C100084F839002068826822F0770222F47F424B
:100C200082600868502837D00DDC202859D005DCB8
:100C300088B3102841D151E0022070BD302853D034
:100C400040283AD13FE060282ED070280BD0B0F574
:100C5000805F03D0B0F5005F2FD110E0206881687D
:100C600021F0070115E0CB68D1E90121206800F0EF
:100C70007BFA2168886840F0770088601DE0CB68C7
:100C8000D1E90121206800F06FFA2068816841F401
:100C90008041816011E01EE0CA684968206800F068
:100CA00075FA5021206806E0CA684968206800F09B
:100CB0007EFA6021206800F061FA84F83950002043
:100CC00084F8380070BDCA684968206800F05EFA90
:100CD00040212068EFE700212068ECE71021206820
:100CE000E9E720212068E6E730212068E3E7704744
:100CF00070B50446006801694FF00005C9438907D3
:100D000015D4C168C943890711D4E91E01610120C6
:100D10002076206880698007204602D0FFF7E7FF31
:100D200004E000F098F8204600F096F82576206858
:100D30000169C943490717D4C168C943490713D496
:100D40006FF004010161022020762068806910F4B0
:100D5000407F204602D0FFF7CAFF04E000F07BF896
:100D6000204600F079F8257620680169C943090713
:100D700016D4C168C943090712D46FF00801016194
:100D8000042020762068C0698007204602D0FFF743
:100D9000AEFF04E000F05FF8204600F05DF8257635
:100DA00020680169C943C90617D4C168C943C90687
:100DB00013D46FF010010161082020762068C0690B
:100DC00010F4407F204602D0FFF791FF04E000F0CE
:100DD00042F8204600F040F8257620680169C943B2
:100DE000C90708D1C168C943C90704D1891E016177
:100DF000204600F033F820680169C943090609D488
:100E0000C168C943090605D46FF08001016120461D
:100E1000FFF790FE20680169C943490609D4C168FB
:100E2000C943490605D46FF040010161204600F036
:100E30003FF820680169C94389060BD4C168C943DA
:100E4000890607D46FF0200101612046BDE870409B
:100E5000FFF771BE70BD70477047000070B5006845
:100E6000B0F1804F1CD102210E48FFF74BFB002848
:100E700016D10D4C6068012812D10C4DC102002220
:100E80002846FFF748FB0022A9142846FFF743FB3A
:100E900000224FF400512846FFF73DFB0020606020
:100EA00070BD000000080240000000200010024059
:100EB0007047FEE72DE9F04387B014216846FFF73D
:100EC000BFF92C480024016841F004010160016869
:100ED00001F004010591016841F001010160016820
:100EE00001F001010591016841F010010160016804
:100EF00001F010010591016841F0080101600068EE
:100F0000DFF8748000F008004FF46056059000226E
:100F100031464046FFF7FFFADFF860904FF4A047F4
:100F2000002239464846FFF7F6FA4EF20200CDE9B4
:100F30000004694612480294FFF720FA012511487F
:100F40000095CDE9010469460F48FFF717FA0096AE
:100F5000CDE90154694640460394FFF70FFA009724
:100F6000CDE90154694648460394FFF707FA07B0F4
:100F7000BDE8F0833038024000100240000C02400F
:100F800000080240000011100000024010B586B0B9
:100F900000241148009401940294039404944FF0A7
:100FA00080410594016048F69F41C0E901144FF467
:100FB0004871C0E90314FFF7E7FD4FF4805000903B
:100FC00069460548FFF71AFE049404A902480594EF
:100FD000FFF7B2FD06B010BD18000020FEE7704715
:100FE0000907090E002806DA00F00F0000F1E020E2
:100FF00080F8141D704700F1E02080F8001470475D
:1010000070477047FFF792BA10B592B0302168462A
:10101000FFF716F914210CA8FFF712F91448002461
:10102000016841F080510160006800F0805011902B
:101030001048016841F4404101600068069400F4E2
:101040004040119002200090012003901020049055
:101050006846FFF7CDFB0F20CDE90C040E940F94EA
:1010600000210CA81094FFF7F9FA12B010BD00008F
:1010700040380240007000401048016841F470019F
:1010800001600F48016841F0010101600C4A002134
:101090000832116002680B4B1A400260031D0A4AB5
:1010A0001A60026822F48022026005480C30016058
:1010B00002495806803908607047000088ED00E05A
:1010C00000380240FFFFF6FE103000240148FFF711
:1010D0000FBE000018000020F0B502681B4B1C4C2E
:1010E0009F031C4D1C4E984207D0B84205D0A04229
:1010F00003D0A84201D0B04204D122F0700C4A685B
:1011000042EA0C02984210D0B8420ED0A0420CD055
:10111000A8420AD0B04208D0104CA04205D0104CD2
:10112000A04202D00F4CA04203D122F44074CA68FE
:10113000224302608A68C2620A688262984201D1D0
:101140000969016301214161F0BD00000000014017
:101150000004004000080040000C00400040014036
:10116000004401400048014010B5846842EA03226F
:1011700024F47F440A432243826010BD826822F037
:1011800070020A4342F007018160704710B5036A9C
:10119000046A24F001040462846924F0F00444EA3F
:1011A000021423F00A020A438461026210BD10B5E2
:1011B000036A23F0100303628369046A23F4704313
:1011C00043EA023224F0A00343EA01118261016282
:1011D00010BDFEE702E008C8121F08C1002AFAD1BC
:1011E00070477047002001E001C1121F002AFBD1A7
:1011F00070470000FFF7A2F9FFF706FFFFF75AFE5E
:10120000FFF7C4FE002211460620FFF7F5F906207D
:10121000FFF7E6F9002211461C20FFF7EDF91C202C
:10122000FFF7DEF94E48FFF7DDFC4E4C0020606012
:1012300020604F4DDFF830814C4F4FF480494FF420
:10124000006BAE144FF4005A2068E0B1206801280A
:10125000FAD1012249463846FFF75DF900223146AE
:101260003846FFF758F959462846FFF750F93146F6
:101270002846FFF74CF951462846FFF748F9C820A1
:10128000FFF728F8E0E7002249463846FFF743F920
:1012900002214046FFF736F980B900225946284618
:1012A000FFF739F9002231462846FFF734F90022CA
:1012B00051462846FFF72FF901206060606870B33F
:1012C00060680128C0D1012231463846FFF723F972
:1012D00059462846FFF71BF940F2DC50FEF7FAFFAB
:1012E00051462846FFF713F931462846FFF70FF914
:1012F00040F2DC50FEF7EEFF51462846FFF707F9B3
:1013000059462846FFF703F940F2DC50FEF7E2FFAA
:1013100031462846FFF7FBF840F2DC50B0E7FFE724
:10132000002231463846FFF7F6F84FF400414046B8
:10133000FFF7E8F878B149464046FFF7E3F860B1B7
:1013400051464046FFF7DEF800289BD1514628461B
:10135000FFF7DDF878E75946F9E73146F7E700008F
:10136000180000200000002000080240000C02408D
:101370000010024000000000000000000102030411
:1013800006070809A4130008000000201800000048
:10139000D4110008BC13000818000020400400000D
:1013A000E41100080000000000000000010000003F
:0C13B00010000000000000000024F40009
:040000050800019955
:00000001FF
