:020000040800F2
:1000000010050020AD010008F71900082B180008A2
:10001000F5190008C50700081F1C000800000000B3
:10002000000000000000000000000000311A00087D
:10003000C7070008000000002F1A0008351A000842
:10004000C7010008C7010008C7010008C701000870
:10005000C7010008C7010008C7010008C701000860
:10006000C7010008C7010008C7010008C701000850
:10007000C7010008C7010008C7010008C701000840
:10008000C7010008C701000895060008000000002D
:10009000000000000000000000000000C701000890
:1000A000C7010008C7010008C7010008C701000810
:1000B0000D1B0008191B0008C7010008C701000834
:1000C000C7010008C7010008C7010008C7010008F0
:1000D000C7010008C7010008C701000800000000B0
:1000E000C7010008C7010008C701000800000000A0
:1000F000000000000000000000000000C701000830
:1001000000000000C7010008C7010008C70100087F
:1001100000000000000000000000000000000000DF
:10012000C7010008C7010008C7010008C70100088F
:10013000C7010008000000000000000000000000EF
:10014000000000000000000000000000C7010008DF
:10015000C7010008C7010008C7010008C70100085F
:10016000C7010008C70100080000000000000000EF
:10017000000000000000000000000000000000007F
:1001800000000000C701000800000000000000009F
:10019000C7010008C7010008DFF80CD000F068FABA
:1001A00000480047411C0008100500200648804711
:1001B00006480047FEE7FEE7FEE7FEE7FEE7FEE74C
:1001C000FEE7FEE7FEE7FEE7B91A0008990100081E
:1001D0002DE9F05F0546002092469B46884606467C
:1001E000814640241BE0284641464746224600F00F
:1001F00089F953465A46C01A914110D31146184600
:10020000224600F070F92D1A67EB01084F4622468E
:100210000120002100F067F917EB00094E41201E74
:10022000A4F10104DFDC484631462A464346BDE8D6
:10023000F09FD2B201E000F8012B491EFBD27047BB
:100240000022F6E710B513460A4604461946FFF7A2
:10025000F0FF204610BD2DE9FE4F804681EA0300E5
:10026000C00F0C46009021F0004123F00045B8EB90
:100270000200A94105D24046214690461C460B4645
:10028000024623F00040104347D0270DC7F30A0071
:10029000C3F30A510290401A019040286BDAC3F36D
:1002A000130040F4801B0098924620B10023D2EB4B
:1002B000030A63EB0B0B01985946C0F1400250460C
:1002C00000F011F906460D4650465946019A00F0D5
:1002D00029F910EB08006141002487EA115284EAF1
:1002E000E7731A4340D0009A62B3019A012A4FEA99
:1002F000075215DC001B61EB02014FF0004202EADD
:100300000752CDE90042001C41F5801132462B46D0
:1003100000F060F903B0BDE8F08F40462146F9E7F0
:10032000001B61EB0201001C41F5801300185B41CA
:100330002018A2F5001747EB030140EAD570B61963
:100340006D4111E06D084FEA360645EAC0754FEA87
:100350000752001B61EB0201001C41F580114908A6
:100360004FEA30000019514132462B4603B0BDE838
:10037000F04F00F020B90098012240000023D0EB9C
:10038000020263EBE073009821464FEAE074B8EB99
:10039000000061EB0401E9E783F000435BE781F0D3
:1003A000004158E72DE9FE4F81EA030404F00044C0
:1003B00021F0004100944FF0000B23F0004350EA7D
:1003C00001045ED052EA03045BD0C3F30A54C1F3C4
:1003D0000A552C44A4F2F3340194A0FB0254C1F357
:1003E000130141F48011C3F3130343F4801301FBA1
:1003F000024400FB034E840A970A44EA815447EA08
:100400008357A4FB076802958D0A05FB07854FEA11
:10041000932C04FB0C542705029D4FEA065847EA2B
:100420001637B5EB08056EEB070C870E920E47EA00
:10043000811742EA8312A7FB0201B6EB0B0164EBC2
:1004400000042B0D43EA0C335E1844EB1C50DA46D3
:100450005146E7FB0201C5F313044FEA0B3343EAAD
:1004600014534FEA0432019C43EA0603A4F10C043E
:100470000294009CCDE900B400F0ACF803B0BDE8F4
:10048000F08F00200146F9E700F0004230F0004014
:100490000AD0C10D01F56071C0F3160042EA0151A6
:1004A000C20840071143704700200146704701F021
:1004B000004330B421F0004150EA010206D00A0D99
:1004C000A2F56072C1F31301002A02DC30BC0020E7
:1004D0007047440F44EAC104C100E01830BC00EB8F
:1004E000C25000F031B8202A04DB203A00FA02F1B1
:1004F000002070479140C2F1200320FA03F3194312
:1005000090407047202A04DB203A21FA02F00021B3
:10051000704721FA02F3D040C2F120029140084313
:1005200019467047202A06DBCB17203A41FA02F021
:1005300043EAE07306E041FA02F3D040C2F1200240
:1005400091400843194670470029A8BF7047401CD6
:10055000490008BF20F00100704710B4B0FA80FCD9
:1005600000FA0CF050EA010404BF10BC704749B116
:10057000CCF1200421FA04F411FA0CF118BF012186
:1005800021430843A3EB0C01CB1D4FEA00614FEA66
:10059000102042BF002010BC704700EBC350104435
:1005A0000029A4BF10BC7047401C490008BF20F0C0
:1005B000010010BC704710B5141E73F1000408DA76
:1005C000401C41F1000192185B411A4301D120F017
:1005D000010010BD2DE9F04D92469B4611B1B1FAD4
:1005E00081F202E0B0FA80F220329046FFF77BFF02
:1005F00004460F4640EA0A0041EA0B0153465A46B8
:10060000084313D0114653EA010019D0C8F1400243
:100610005046FFF777FF05460E465046594642467C
:10062000FFF761FF084305D0012004E0204639466A
:10063000BDE8F08D0020054346EAE0762C433743C1
:100640000A986305E40AA0EB08000022FD0A44EAC8
:1006500047540A3002D500200146E9E70105101988
:100660006941DDE9084500196941BDE8F04DA2E79F
:10067000064C074D06E0E06840F0010394E80700EF
:1006800098471034AC42F6D3FFF78AFDEC200008FF
:100690000C210008014800F048B90000500000207B
:1006A000454910B54A6822F440324A604A684368B6
:1006B0001A434A6001684A6822F480724A600168FD
:1006C0004A68036942EA03224A6001684A6822F0E4
:1006D00040724A6001684A6883681A434A60016848
:1006E0008A6822F400628A6001688A68C3681A43D3
:1006F0008A60816A6FF07062D14201688A6822F074
:1007000070628A6001688A680CD0836A1A438A60C2
:1007100001688A6822F040528A6001688A68C36A68
:100720001A4301E022F040528A6001688A6822F090
:1007300002028A6001688A68836942EA43028A6029
:10074000016A002901684A680FD042F400624A60D9
:1007500001684A6822F460424A6001684A68174C9E
:10076000436A04EB43331A4301E022F400624A6017
:100770000168CA6A22F47002CA620168CA6A838B7D
:100780000F4C04EB03531A43CA6201688A6822F4CF
:1007900000728A6001688A68036B42EA43228A60B9
:1007A00001688A6822F480628A6001688A68406908
:1007B00042EA8020886010BD0023014000E0FFFF76
:1007C0000000F0FFFEE770477047000078B5002496
:1007D000009490F83C20012A19D0012280F83C2096
:1007E0000A6807230568092A13D9EE680A3A02EB5A
:1007F000420293409E43EE600A788B680A3A02EB0D
:10080000420293400268D5682B43D36010E0022077
:1008100078BD2E6902EB420293409E432E610A7816
:100820008B6802EB42029340026815692B43136107
:100830004A681F23072A13D205686E6B521E02EB0B
:10084000820293409E436E630B790A885B1E92B2CC
:1008500003EB83039A4003685D6B2A435A6327E0E6
:1008600005680D2A12D22E6BD21F02EB8202934032
:100870009E432E630B790A88DB1F92B203EB83033E
:100880009A4003681D6B2A431A6311E0EE6A0D3A21
:1008900002EB820293409E43EE620B790A880D3B85
:1008A00092B203EB83039A400368DD6A2A43DA625B
:1008B000174B0568154A9D4206D10D68122D03D1CC
:1008C000556845F48005556005689D4219D1114D64
:1008D0000B68AB4201D0112B13D1536843F40003D2
:1008E00053600968A9420CD10B490C4A0968B1FB55
:1008F000F2F101EB8101490000E0491E009100295D
:10090000FBD180F83C40002078BD0000002301406E
:1009100000200140120000104C00002040420F0057
:10092000704770470068C06C704770B50446006837
:1009300001684268C1F34001C2F3401251B34AB3A7
:10094000216CC90603D4216C41F4007121648168D3
:1009500011F0405F17D1A169A9B9C16A11F4700FF4
:1009600002D0816849050ED4416821F02001416020
:10097000206C20F480702064206CC00403D4206CB0
:1009800040F0010020642046FFF7CAFF21686FF0A5
:1009900012000860206801684268C1F38001C2F358
:1009A000C01289B382B3216CC90603D4216C41F40F
:1009B00000512164816811F4401F1ED1816B11F434
:1009C000401F02D08168490517D44168490514D4F5
:1009D000816811F0405F10D1A16971B9416821F0BF
:1009E00080014160206C20F480502064206CC005A0
:1009F00003D4206C40F0010020642046FFF7E4FEA1
:100A000021686FF00C00086020680168426811F0EE
:100A1000010FC2F380120ED06AB10068C0070AD07D
:100A2000206C40F480302064204600F046F82168B5
:100A30006FF001000860206801684268C1F340114E
:100A4000C2F3806200290DD0002A0BD0616C41F006
:100A5000020161646FF0200505602046FFF761FF29
:100A60002068056070BD70B504004FF0000503D02C
:100A7000206C002610B107E0012070BD666484F888
:100A80003C60204600F01AF8206CC00610D4206CA0
:100A900020F4885040F0020020642046FFF700FE5A
:100AA0006664206C20F0020040F00100206400E049
:100AB000012584F83C60284670BD704710B586B0AB
:100AC000044614216846FFF7BBFB114920688842A1
:100AD0001CD110480021026842F480720260006854
:100AE00000F4807005900B481438026842F001024F
:100AF0000260006800F001000590022000900320D1
:100B0000CDE901016946044800F0CAF806B010BDFD
:100B10000020014044380240000002402DE9F0412D
:100B2000044600680D4681684FF0000749050BD563
:100B30008068C00508D5206C40F02000206484F84F
:100B40003C700120BDE8F08100F07CF906460FE022
:100B5000681C0DD025B100F075F9801BA84207D99B
:100B6000206C40F00400206484F83C700320E9E726
:100B7000206800688007EBD521686FF012000860DC
:100B8000206C40F4007020642068816811F0405FA0
:100B900013D1A16989B9C16A11F4700F02D08068BC
:100BA00040050AD4206C20F480702064206CC004BE
:100BB00003D4206C40F0010020640020C2E7000054
:100BC00018B50021009190F83C20012A07D001229D
:100BD00080F83C2002689368DB0702D011E0022015
:100BE00018BD936843F001039360204A204B1268BC
:100BF000B2FBF3F202EB420200E0521E0092002A26
:100C0000FBD102689368DB072DD0036C40F20164CE
:100C1000A34343F48073036453685B0505D5036CF9
:100C200023F4005343F480530364036CDB0404D5C2
:100C3000436C23F00603436400E0416480F83C10F9
:100C40000C496FF02203136049680068C90602D09E
:100C50000949884207D1816811F0405F03D181685A
:100C600041F080418160002018BD00004C00002050
:100C700040420F00002301400020014070B50446AF
:100C800000F0E0F80546601C02D0044800780444F7
:100C900000F0D8F8401BA042FAD370BD40000020FD
:100CA0002DE9F84FDFF860B100224FF001084FF056
:100CB000030A4FF00F090BF1040E00BF0B6808FA8E
:100CC00002F42340A3426ED14D68022D01D0122DB3
:100CD0000ED1D50800EB850CDCF820505607F70E36
:100CE00009FA07F6B5430E69BE402E43CCF82060E2
:100CF000066855000F790AFA05FC07F0030726EA93
:100D00000C06AF40374307604E68012E05D0022E17
:100D100003D0112E01D0122E0ED18668CF6826EA9C
:100D20000C06AF40374387604668A6430C79C4F38E
:100D30000014944034434460C6688C6826EA0C066C
:100D4000AC403443C4604C68E40056D52F4C256851
:100D500045F480452560246822F0030504F48044AE
:100D600000942B4C2E19D6F8084895072F0F09FA36
:100D700007F5AC43274DA84201D1002515E0264DCB
:100D8000A84201D1012510E0244DA84201D102253D
:100D90000BE0234DA84201D1032506E0214DA842D6
:100DA00002D1042501E028E00725BD402543C6F80F
:100DB0000858DBF800405D464E689C43F60300D5BA
:100DC0001C432C60DEF8004075464E689C43B60319
:100DD00000D51C432C600C4D08352C684E689C4394
:100DE000F60200D51C432C60074D0C352C684E686C
:100DF0009C43B60200D51C432C60521C102AFFF401
:100E00005DAFBDE8F88F0000003C0140443802406F
:100E1000003001400000024000040240000802408F
:100E2000000C0240001002400069084000D0012080
:100E3000704742694A40426170470AB18161704718
:100E40000904FBE70148806870470000400000206B
:100E50000248816802781144816070474000002098
:100E60000B4810B5016841F400710160016841F45C
:100E700080610160016841F480710160032000F02D
:100E80006DF8002000F006F800F024F8002010BDF6
:100E9000003C024070B50D4D04464FF47A7128783D
:100EA000B1FBF0F00A490968B1FBF0F000F0C0FABC
:100EB00048B9102C07D200222146501E00F02EF80F
:100EC00000206C6070BD012070BD0000400000205B
:100ED0004C0000200A4808B5016841F480410160D7
:100EE000006800F4804000900548001F016841F050
:100EF00080510160006800F08050009008BD000043
:100F00004438024000F01F02012191404009800056
:100F100000F1E020C0F8001170470000F0B40E4B63
:100F20001B680C46C3F30223C3F10705042D00D947
:100F30000425191D072901D2002300E0DB1E01262C
:100F400006FA05F1491E214099409E40761E164042
:100F50003143F0BC00F05BBD0CED00E0064900F051
:100F6000070208684FF6FF03184040EA0220034AD0
:100F700010430860704700000CED00E00000FA0527
:100F80002DE9F0470E46050065D0DFF81481D8F84A
:100F90000000F7B200F00F00B04207D288F80070EE
:100FA000D8F8000000F00F00B04254D128683D4C42
:100FB000810712D5400703D5206840F4E050206037
:100FC0002878000703D5206840F46040206020683E
:100FD000A96820F0F000084320602878C0072DD0D1
:100FE000304968680839012812D0022813D0032834
:100FF00011D00968890700292DDA216821F0030141
:1010000001432160FFF71EFF814641F2883A0EE05E
:1010100009688903EFE709688901ECE7FFF712FF28
:10102000A0EB0901514502D90320BDE8F0872068F3
:10103000696800F00C00B0EB810FEFD1D8F8001018
:10104000404601F00F01B14207D90770006800F077
:101050000F00B04201D00120E7E72878400705D50E
:101060002068E96820F4E0500843206028780007F1
:1010700006D52068296920F4604040EAC10020605C
:1010800000F016F82168084AC1F30311515CC8400A
:10109000064908600020FFF7FDFE0020C5E70000BC
:1010A000003C024008380240DC2000084C000020D0
:1010B000154810B5006810F00C02144813D01449FC
:1010C000042A0FD0082A0ED10F4C241F226823684F
:1010D00002F03F025B0207D52068C0F38810A0FB36
:1010E000010106E0084610BD2168C1F38811A1FB8B
:1010F00000010023FFF76CF82168C1F30141491C8E
:101100004900B0FBF1F010BD083802400024F400A3
:1011100040787D012DE9F84F050076D02878DFF87A
:10112000F8B2BE4CC00749D0DBF800105846C1F3F6
:101130008101012908D00068C0F3810002280AD18A
:10114000201D0068400206D52068800336D56868F7
:101150000028E2D032E06868B0F5803F10D0B0F5EA
:10116000A02F206810D020F480302060206820F468
:10117000802020606868A0B1FFF764FE06460CE09E
:10118000206840F48030F4E740F480202060F7E7E6
:10119000FFF758FE801B642873D820688003F7D5BA
:1011A0000CE0FFF74FFE064605E000BFFFF74AFEE2
:1011B000801B6428F0D820688003F7D42878DFF8F3
:1011C000608280074FF000093ED5DBF800105846DA
:1011D00011F00C0F09D00068C0F3810002280BD178
:1011E0008D48001F0068400206D42068800715D58E
:1011F000E868012809D111E0E868B8B10120C8F811
:101200000000FFF71FFE064605E002E1FFF71AFEA9
:10121000801B0228C0D820688007F7D5206829697C
:1012200020F0F80040EAC10020600DE0C8F800900E
:10123000FFF708FE064604E0FFF704FE801B0228C5
:101240001FD820688007F7D42878000722D5724E6F
:10125000744869696C3671B101210160FFF7F2FDD4
:10126000074604E0FFF7EEFDC01B022809D83068EE
:101270008007F7D50EE0C0F80090FFF7E3FD0746C2
:1012800005E083E0FFF7DEFDC01B02287ED8306852
:101290008007F7D42878400768D5DFF87CA10027BD
:1012A0000AF1380ADAF80000C0000BD4DAF80010AE
:1012B00041F08051CAF80010DAF80000012700F070
:1012C00080500090584E3068C00510D4306840F40B
:1012D00080703060FFF7B6FD009005E0FFF7B2FDCB
:1012E0000099401A022851D83068C005F6D54A4EF8
:1012F000A868683601280FD00528306810D020F083
:1013000001003060306820F004003060A868B8B197
:10131000FFF798FD00900FE0306840F00100F4E71F
:1013200040F004003060F7E7FFF78CFD0099411AA8
:1013300041F28830814264D830688007F4D50EE0ED
:10134000FFF780FD009007E0FFF77CFD0099411A50
:1013500041F28830814254D830688007F4D42FB1EC
:10136000DAF8001021F08051CAF80010A869C0B363
:10137000DBF80010C1F3810102294AD00228484657
:1013800007D0C8F86000FFF75DFD00E039E00546D2
:101390003AE04746C8F86000FFF754FD064604E00F
:1013A000FFF750FD801B02282BD820688001F7D45E
:1013B000D5E907010843A96A1C4A490802EB014123
:1013C0006A6A41EA8211084395F82C1040EA0161EB
:1013D0001148001F016001203866FFF733FD054604
:1013E00005E014E0FFF72EFD401B022809D8206815
:1013F0008001F7D50BE000BFFFF724FD401B02285A
:1014000002D90320BDE8F88F20688001F4D40020C1
:10141000F8E70120F6E700000838024000380240F3
:1014200000004742800E4742007000400000FFFF6E
:1014300010B5401EB0F1807F01D3012010BD4FF0E8
:10144000E02460610F21601700F0E1FA0020A06144
:1014500007202061002010BD7047704730B590F81C
:101460003820012A20D0012280F83820022380F879
:10147000393003685C6824F070045C6003685C6861
:101480000D682C435C6003689C6824F080049C60B9
:1014900003689C6849680C439C6080F839200021EF
:1014A00080F83810084630BD022030BD10B5040069
:1014B00003D094F8390010B107E0012010BD0020DE
:1014C00084F83800204600F00DF8022084F8390036
:1014D000211D206800F026FB012084F8390000203F
:1014E00010BD000008B501680B48B1F1804F0BD06A
:1014F0000A4A914207D1016841F002010160006887
:1015000000F00200009008BD016841F00101016097
:10151000006800F00100F5E7403802400004004098
:101520000168CA6842F00102CA600068016841F0BF
:10153000010101600020704770B5044690F8380042
:10154000012817D0012584F83850022084F839008A
:101550002068826822F0770222F47F428260086865
:10156000502837D00DDC202859D005DC88B310284E
:1015700041D151E0022070BD302853D040283AD1EB
:101580003FE060282ED070280BD0B0F5805F03D0EC
:10159000B0F5005F2FD110E02068816821F00701CD
:1015A00015E0CB68D1E90121206800F003FB216838
:1015B000886840F0770088601DE0CB68D1E90121A0
:1015C000206800F0F7FA2068816841F4804181606A
:1015D00011E01EE0CA684968206800F0FDFA502159
:1015E000206806E0CA684968206800F006FB6021B0
:1015F000206800F0E9FA84F83950002084F83800B7
:1016000070BDCA684968206800F0E6FA4021206889
:10161000EFE700212068ECE710212068E9E72021AE
:101620002068E6E730212068E3E7704770B504469C
:10163000006801694FF00005C943890715D4C168E6
:10164000C943890711D4E91E016101202076206871
:1016500080698007204602D0FFF7E7FF04E000F032
:1016600098F8204600F096F8257620680169C9436D
:10167000490717D4C168C943490713D46FF004015F
:101680000161022020762068806910F4407F2046A6
:1016900002D0FFF7CAFF04E000F07BF8204600F01C
:1016A00079F8257620680169C943090716D4C1680D
:1016B000C943090712D46FF00801016104202076A4
:1016C0002068C0698007204602D0FFF7AEFF04E023
:1016D00000F05FF8204600F05DF82576206801698B
:1016E000C943C90617D4C168C943C90613D46FF0EA
:1016F00010010161082020762068C06910F4407F45
:10170000204602D0FFF791FF04E000F042F82046A7
:1017100000F040F8257620680169C943C90708D15F
:10172000C168C943C90704D1891E0161204600F080
:1017300033F820680169C943090609D4C168C9435F
:10174000090605D46FF0800101612046FFF784FE91
:1017500020680169C943490609D4C168C9434906DB
:1017600005D46FF040010161204600F05DF820686B
:101770000169C94389060BD4C168C943890607D4E6
:101780006FF0200101612046BDE87040FFF765BEA3
:1017900070BD7047704700002DE9F0410068B0F15E
:1017A000804F25D01D49884222D11D4C60680128F8
:1017B0001ED1226AC1021B48E2B1226A8514012AA5
:1017C0001DD0226A8E00022A1BD0226A032A1ED054
:1017D000226A042A0CD10746FFF72BFB294638461C
:1017E000FFF727FB31463846FFF723FB0020206236
:1017F000BDE8F081FFF71DFB206A401CF7E7294692
:10180000F8E70546FFF715FB31462846F2E706469E
:10181000FFF70FFB29463046ECE7000000040040CC
:1018200000000020001002407047FEE77FB5002452
:1018300010480094019402940D490394C0E90014E7
:10184000046184614FF08071046281600A49C0E9DB
:101850000A140125C460C56145610463FFF703F9FB
:101860000095CDE9015469460248FEF7AFFF7FBD00
:1018700000200140500000200100000F2DE9F0433E
:1018800087B014216846FEF7DBFC2C480024016871
:1018900041F004010160016801F004010591016853
:1018A00041F001010160016801F001010591016849
:1018B00041F010010160016801F01001059101681B
:1018C00041F0080101600068DFF8748000F0080052
:1018D0004FF460560590002231464046FFF7ADFABE
:1018E000DFF860904FF45047002239464846FFF732
:1018F000A4FA4EF20200CDE90004694612480294AF
:10190000FFF7CEF90125CDE9005469460F4802944E
:10191000FFF7C6F90096CDE90154694640460394A5
:10192000FFF7BEF90097CDE9015469464846039494
:10193000FFF7B6F907B0BDE8F08300003038024089
:1019400000100240000C024000080240000002406B
:1019500010B586B0002411480094019402940394B9
:1019600004944FF080410594016042F20F71C0E988
:1019700001144FF4FA71C0E90314FFF797FD4FF417
:101980008050009069460548FFF7D6FD049404A9ED
:1019900002480594FFF762FD06B010BD98000020D4
:1019A00010B586B000241248009401940294039468
:1019B00004940E490594016048F69F41C0E9011462
:1019C0004FF4C861C0E90314FFF770FD4FF4805075
:1019D000009069460648FFF7AFFD049404A9044847
:1019E0000594FFF73BFD06B010BD00000004004069
:1019F000D4000020FEE7704700F01F020121914053
:101A00004009800000F1E020C0F88011704709070C
:101A1000090E002806DA00F00F0000F1E02080F83F
:101A2000141D704700F1E02080F8001470477047E3
:101A30007047000010B5FFF70BFA02480168491C17
:101A4000016010BD3C00002010B592B03021684606
:101A5000FEF7F6FB14210CA8FEF7F2FB1448002455
:101A6000016841F080510160006800F080501190E1
:101A70001048016841F4404101600068069400F498
:101A8000404011900220009001200390102004900B
:101A90006846FFF73FFB0F20CDE90C040E940F942E
:101AA00000210CA81094FFF76BFA12B010BD0000D3
:101AB00040380240007000401048016841F4700155
:101AC00001600F48016841F0010101600C4A0021EA
:101AD0000832116002680B4B1A400260031D0A4A6B
:101AE0001A60026822F48022026005480C3001600E
:101AF00002495806803908607047000088ED00E010
:101B000000380240FFFFF6FE103000240148FFF7C6
:101B10008DBD0000980000200148FFF787BD000040
:101B2000D4000020F0B502681B4B1C4C9F031C4DD9
:101B30001C4E984207D0B84205D0A04203D0A8421C
:101B400001D0B04204D122F0700C4A6842EA0C0283
:101B5000984210D0B8420ED0A0420CD0A8420AD071
:101B6000B04208D0104CA04205D0104CA04202D088
:101B70000F4CA04203D122F44074CA682243026091
:101B80008A68C2620A688262984201D10969016367
:101B900001214161F0BD000000000140000400404F
:101BA00000080040000C004000400140004401409B
:101BB0000048014010B5846842EA032224F47F44BF
:101BC0000A432243826010BD826822F070020A43F9
:101BD00042F007018160704710B5036A046A24F07F
:101BE00001040462846924F0F00444EA021423F03E
:101BF0000A020A438461026210BD10B5036A23F031
:101C0000100303628369046A23F4704343EA0232D7
:101C100024F0A00343EA01118261016210BDFEE7D6
:101C200002E008C8121F08C1002AFAD170477047A5
:101C3000002001E001C1121F002AFBD17047000003
:101C40002DED028BFFF70CF9FFF7FEFEFFF716FEF6
:101C5000FFF77EFEFFF7A4FEFFF7E8FD0022114626
:101C60001C20FFF75BF91C20FFF74CF900221146FE
:101C70001D20FFF753F91D20FFF744F900221146FC
:101C80001220FFF74BF91220FFF73CF9FE48002421
:101C900001684FF47A70B1FBF0F0401EB0F1807F24
:101CA00009D24FF0E0214861F84AF02082F8140D83
:101CB0008C6107200861F648FFF732FCF4483C309D
:101CC000FFF72EFC1D20FFF797FEA0462046F14CA3
:101CD00060602060A060E06020616061A0612062BF
:101CE0009FEDED0A606284ED0A0A84ED0B0A206321
:101CF000DFF8A893EA4DEB4EDFF8ACB3B0EE008A04
:101D000001274FF4805A6063E1484838FEF758FFD6
:101D1000DF4805214838FEF701FF08B1606A04E09A
:101D2000DB484838FEF7FEFD606228B300EE100A7B
:101D3000B8EE400ADFEDDD0A20EE200A10EE100AB0
:101D4000FEF7A2FB9FEDDA1B53EC112BFEF72AFBEB
:101D5000FEF7ADFBFEF798FB9FEDD71B53EC112B65
:101D6000FEF71AFBFEF7A3FB00EE100ADFEDD40A24
:101D700020EE200A84ED0A0A206B20B994ED0A0AAD
:101D800084ED0B0A276394ED0B0AD4ED0A0A30EEBA
:101D9000080AB4EEE00AF1EE10FA01D8012200E0E0
:101DA00000224FF400415846FFF747F86420FEF741
:101DB00065FF01214846FFF737F8012804D1E068A4
:101DC00010B928683060E76001214846FFF72CF819
:101DD000012832D129683068081AC8282DD9C4F8DA
:101DE0000C80206818B12068012813D025E000225B
:101DF0004FF40061B348FFF720F800225146B14884
:101E0000FFF71BF800224FF40051AE48FFF715F81A
:101E1000276012E000224FF40061AA48FFF70DF896
:101E200000225146A748FFF708F800224FF400515E
:101E3000A448FFF702F8C4F800802068F8B12068D1
:101E400001287FF461AF810301225846FEF7F5FFB8
:101E5000002251465846FEF7F0FF4FF400619948C2
:101E6000FEF7E7FF51469748FEF7E3FF4FF40051B6
:101E70009448FEF7DEFFC820FEF700FF44E700228B
:101E80004FF480415846FEF7D8FF02218E48FEF7F6
:101E9000CBFF20B9A06810B928683060A7606068DF
:101EA00068B902218848FEF7BFFF40B92868316849
:101EB000401AB0F5967F02D9A068012803D0606867
:101EC000012820D045E04FF0E0204FF00051C0F84D
:101ED0000011012251465846FEF7AFFF00224FF491
:101EE00000617848FEF7A9FF002251467548FEF7C9
:101EF000A4FF00224FF400517248FEF79EFF676076
:101F0000C4F8088025E002216F48FEF78DFF00BB72
:101F100028683168401AB0F5967F1AD9A068012860
:101F200017D11D20FFF768FD00224FF400616548BE
:101F3000FEF783FF002251466248FEF77EFF002233
:101F40004FF400515F48FEF778FFC4F80480C4F8EE
:101F500008806068002891D1002251465846FEF75B
:101F60006CFF4FF400415848FEF75EFF20B920692E
:101F700010B92868306027614FF400415248FEF7DD
:101F800053FF70B928683168401AB0F5967F08D9B8
:101F90002069012805D1C1024A48FEF74AFFC4F86A
:101FA000108094ED0B0AD4ED0A0A30EE080AB4EE64
:101FB000E00AF1EE10FA1FDB4FF480414248FEF7D1
:101FC00033FF20B9606910B92868306067614FF449
:101FD00080413D48FEF728FF70B928683168401AF3
:101FE000B0F5967F08D96069012805D1514635487A
:101FF000FEF71FFFC4F81480606B10B1012812D0E7
:1020000023E094ED0B0AD4ED0A0A30EE080AB4EE90
:10201000E00AF1EE10FA18D2012251462948FEF7E3
:102020000CFF676311E094ED0B0AD4ED0A0A30EE61
:10203000080AB4EEE00AF1EE10FA06DB002251467F
:102040002048FEF7FAFEC4F834804FF400511E48D1
:10205000FEF7EAFE20B9A06910B928683060A761D0
:102060004FF400511848FEF7DFFE00287FF406AF5A
:1020700029683068081AB0F5967F7FF6FFAEA06930
:102080000128F3D1410321E04C0000200FE000E0E3
:102090009800002000000020000000000000024026
:1020A0003C00002038000020000C02400000803A74
:1020B000666666666666E63F7B14AE47E17A843FF5
:1020C0000000C84200100240000802400248FEF72B
:1020D000B0FEC4F8188017E60010024000000000AF
:1020E0000000000001020304060708090C21000893
:1020F0000000002050000000201C00085C210008A7
:1021000050000020C0040000301C00080000000047
:1021100000000000000000000000000000000000BF
:1021200000000000000000000000000000000000AF
:10213000000000000000000000000000000000009F
:10214000000000000000000000000000010000008E
:0C21500010000000000000000024F4005B
:040000050800019955
:00000001FF
