:020000040800F2
:1000000018040020AD010008C30B0008210B0008F4
:10001000C10B0008B9020008B10C00080000000084
:10002000000000000000000000000000E70B0008D6
:10003000BB02000800000000E50B0008E90B000807
:10004000C7010008C7010008C7010008C701000870
:10005000C7010008C7010008BD020008C701000869
:10006000C7010008C7010008C7010008C701000850
:10007000C7010008C7010008C7010008C701000840
:10008000C7010008C7010008C70100080000000000
:10009000000000000000000000000000C701000890
:1000A000C7010008C7010008C7010008C701000810
:1000B000C7010008C7010008C7010008C701000800
:1000C000C7010008C7010008C7010008C7010008F0
:1000D000C7010008C7010008C701000800000000B0
:1000E000C7010008C7010008C701000800000000A0
:1000F000000000000000000000000000C701000830
:1001000000000000C7010008C7010008C70100087F
:1001100000000000000000000000000000000000DF
:10012000C7010008C7010008C7010008C70100088F
:10013000C7010008000000000000000000000000EF
:10014000000000000000000000000000C7010008DF
:10015000C7010008C7010008C7010008C70100085F
:10016000C7010008C70100080000000000000000EF
:10017000000000000000000000000000000000007F
:1001800000000000C701000800000000000000009F
:10019000C7010008C7010008DFF80CD000F07AF8AA
:1001A00000480047D10C000818040020064880478A
:1001B00006480047FEE7FEE7FEE7FEE7FEE7FEE74C
:1001C000FEE7FEE7FEE7FEE75D0C00089901000888
:1001D0002DE9F05F0546002092469B46884606467C
:1001E000814640241BE0284641464746224600F00F
:1001F00041F853465A46C01A914110D31146184649
:10020000224600F028F82D1A67EB01084F462246D7
:100210000120002100F01FF817EB00094E41201EBD
:10022000A4F10104DFDC484631462A464346BDE8D6
:10023000F09FD2B201E000F8012B491EFBD27047BB
:100240000022F6E710B513460A4604461946FFF7A2
:10025000F0FF204610BD202A04DB203A00FA02F10C
:10026000002070479140C2F1200320FA03F31943A4
:1002700090407047202A04DB203A21FA02F0002146
:10028000704721FA02F3D040C2F1200291400843A6
:1002900019467047064C074D06E0E06840F0010340
:1002A00094E8070098471034AC42F6D3FFF778FF84
:1002B000280E0008480E0008FEE77047012000F0F5
:1002C00047B8000070B5044600F020F90546601CF0
:1002D00002D004480078044400F018F9401BA04202
:1002E000FAD370BD080000202DE9F041164C2068BB
:1002F0004FF40061154D4E008F00A0B12068012819
:100300000FD10022284600F0FCF800223146284692
:1003100000F0F7F800223946284600F0F2F80020F5
:100320002060BDE8F0810022284600F0EAF80022B3
:100330003146284600F0E5F800223946284600F00C
:10034000E0F80120ECE7000000000020001002406F
:10035000044910B50A68024202D00860FFF7C4FFE2
:1003600010BD0000143C01402DE9F84FDFF860B1EA
:1003700000224FF001084FF0030A4FF00F090BF174
:10038000040E00BF0B6808FA02F42340A3426ED1AA
:100390004D68022D01D0122D0ED1D50800EB850C31
:1003A000DCF820505607F70E09FA07F6B5430E6938
:1003B000BE402E43CCF82060066855000F790AFA3B
:1003C00005FC07F0030726EA0C06AF403743076039
:1003D0004E68012E05D0022E03D0112E01D0122E10
:1003E0000ED18668CF6826EA0C06AF403743876097
:1003F0004668A6430C79C4F3001494403443446027
:10040000C6688C6826EA0C06AC403443C4604C686D
:10041000E40056D52F4C256845F4804525602468B6
:1004200022F0030504F4804400942B4C2E19D6F8D6
:10043000084895072F0F09FA07F5AC43274DA84246
:1004400001D1002515E0264DA84201D1012510E07B
:10045000244DA84201D102250BE0234DA84201D131
:10046000032506E0214DA84202D1042501E028E041
:100470000725BD402543C6F80858DBF800405D4617
:100480004E689C43F60300D51C432C60DEF8004008
:1004900075464E689C43B60300D51C432C600C4D3A
:1004A00008352C684E689C43F60200D51C432C602E
:1004B000074D0C352C684E689C43B60200D51C4392
:1004C0002C60521C102AFFF45DAFBDE8F88F0000CD
:1004D000003C01404438024000300140000002402E
:1004E0000004024000080240000C024000100240DC
:1004F0000069084000D00120704742694A404261CB
:1005000070470AB1816170470904FBE701488068C0
:1005100070470000080000200248816802781144FA
:1005200081607047080000200B4810B5016841F455
:1005300000710160016841F480610160016841F46B
:1005400080710160032000F06DF8002000F006F8D3
:1005500000F024F8002010BD003C024070B50D4DA5
:1005600004464FF47A712878B1FBF0F00A49096823
:10057000B1FBF0F000F0C0FA48B9102C07D200220D
:100580002146501E00F02EF800206C6070BD012046
:1005900070BD000008000020140000200A4808B5C3
:1005A000016841F480410160006800F480400090DF
:1005B0000548001F016841F080510160006800F0AB
:1005C0008050009008BD00004438024000F01F0237
:1005D000012191404009800000F1E020C0F80011A5
:1005E00070470000F0B40E4B1B680C46C3F30223A7
:1005F000C3F10705042D00D90425191D072901D2CF
:10060000002300E0DB1E012606FA05F1491E214009
:1006100099409E40761E16403143F0BC00F0D2BA9D
:100620000CED00E0064900F0070208684FF6FF03F2
:10063000184040EA0220034A104308607047000057
:100640000CED00E00000FA052DE9F0470E4605002C
:1006500065D0DFF81481D8F80000F7B200F00F0081
:10066000B04207D288F80070D8F8000000F00F0000
:10067000B04254D128683D4C810712D5400703D5BC
:10068000206840F4E05020602878000703D52068F7
:1006900040F4604020602068A96820F0F000084322
:1006A00020602878C0072DD03049686808390128B3
:1006B00012D0022813D0032811D009688907002915
:1006C0002DDA216821F0030101432160FFF71EFFAD
:1006D000814641F2883A0EE009688903EFE709682C
:1006E0008901ECE7FFF712FFA0EB0901514502D9A0
:1006F0000320BDE8F0872068696800F00C00B0EBCB
:10070000810FEFD1D8F80010404601F00F01B1423F
:1007100007D90770006800F00F00B04201D0012037
:10072000E7E72878400705D52068E96820F4E0501D
:10073000084320602878000706D52068296920F43E
:10074000604040EAC100206000F016F82168084AC5
:10075000C1F30311515CC840064908600020FFF74F
:10076000FDFE0020C5E70000003C024008380240C2
:10077000180E000814000020154810B5006810F08D
:100780000C02144813D01449042A0FD0082A0ED1A1
:100790000F4C241F2268236802F03F025B0207D53A
:1007A0002068C0F38810A0FB010106E0084610BDD8
:1007B0002168C1F38811A1FB00010023FFF708FDA8
:1007C0002168C1F30141491C4900B0FBF1F010BDA3
:1007D000083802400024F40040787D012DE9F84FEC
:1007E000050076D02878DFF8F8B2BE4CC00749D0B3
:1007F000DBF800105846C1F38101012908D00068D8
:10080000C0F3810002280AD1201D0068400206D5ED
:100810002068800336D568680028E2D032E0686836
:10082000B0F5803F10D0B0F5A02F206810D020F494
:1008300080302060206820F4802020606868A0B1AB
:10084000FFF764FE06460CE0206840F48030F4E7D1
:1008500040F480202060F7E7FFF758FE801B6428F3
:1008600073D820688003F7D50CE0FFF74FFE0646EB
:1008700005E000BFFFF74AFE801B6428F0D820681F
:100880008003F7D42878DFF8608280074FF00009F2
:100890003ED5DBF80010584611F00C0F09D0006867
:1008A000C0F3810002280BD18D48001F0068400270
:1008B00006D42068800715D5E868012809D111E021
:1008C000E868B8B10120C8F80000FFF71FFE06462F
:1008D00005E002E1FFF71AFE801B0228C0D820685D
:1008E0008007F7D52068296920F0F80040EAC100A8
:1008F00020600DE0C8F80090FFF708FE064604E00F
:10090000FFF704FE801B02281FD820688007F7D459
:100910002878000722D5724E744869696C3671B127
:1009200001210160FFF7F2FD074604E0FFF7EEFD4D
:10093000C01B022809D830688007F7D50EE0C0F840
:100940000090FFF7E3FD074605E083E0FFF7DEFDDB
:10095000C01B02287ED830688007F7D4287840076B
:1009600068D5DFF87CA100270AF1380ADAF8000020
:10097000C0000BD4DAF8001041F08051CAF8001022
:10098000DAF80000012700F080500090584E3068DF
:10099000C00510D4306840F480703060FFF7B6FDB9
:1009A000009005E0FFF7B2FD0099401A022851D8E7
:1009B0003068C005F6D54A4EA868683601280FD0C1
:1009C0000528306810D020F001003060306820F039
:1009D00004003060A868B8B1FFF798FD00900FE000
:1009E000306840F00100F4E740F004003060F7E7C1
:1009F000FFF78CFD0099411A41F28830814264D89A
:100A000030688007F4D50EE0FFF780FD009007E026
:100A1000FFF77CFD0099411A41F28830814254D899
:100A200030688007F4D42FB1DAF8001021F080513B
:100A3000CAF80010A869C0B3DBF80010C1F3810147
:100A400002294AD00228484607D0C8F86000FFF7BC
:100A50005DFD00E039E005463AE04746C8F8600031
:100A6000FFF754FD064604E0FFF750FD801B022807
:100A70002BD820688001F7D4D5E907010843A96A7B
:100A80001C4A490802EB01416A6A41EA82110843A3
:100A900095F82C1040EA01611148001F0160012007
:100AA0003866FFF733FD054605E014E0FFF72EFD3D
:100AB000401B022809D820688001F7D50BE000BF51
:100AC000FFF724FD401B022802D90320BDE8F88F60
:100AD00020688001F4D40020F8E70120F6E7000048
:100AE000083802400038024000004742800E47426A
:100AF000007000400000FFFF10B5401EB0F1807F85
:100B000001D3012010BD4FF0E02460610F21601778
:100B100000F058F80020A06107202061002010BDDF
:100B2000FEE70000F0B587B014216846FFF788FBA8
:100B30001E480024016841F004010160016801F0D1
:100B400004010591016841F001010160016801F0B3
:100B500001010591016841F0100101600068144F26
:100B600000F010004FF460560590002231463846E0
:100B7000FFF7C7FC4EF20200CDE9000469460D48BC
:100B80000294FFF7F1FB01250B480095CDE9010424
:100B900069460A48FFF7E8FB0096CDE9015469462B
:100BA00038460394FFF7E0FB07B0F0BD3038024051
:100BB0000010024000080240000011100000024036
:100BC000FEE770470907090E002806DA00F00F005B
:100BD00000F1E02080F8141D704700F1E02080F85B
:100BE0000014704770477047FFF796BC10B592B07D
:100BF00030216846FFF724FB14210CA8FFF720FBE7
:100C000014480024016841F080510160006800F040
:100C1000805011901048016841F440410160006823
:100C2000069400F4404011900220009001200390AF
:100C3000102004906846FFF7D1FD0F20CDE90C0489
:100C40000E940F9400210CA81094FFF7FDFC12B035
:100C500010BD00004038024000700040104801689C
:100C600041F4700101600F48016841F00101016029
:100C70000C4A00210832116002680B4B1A400260D6
:100C8000031D0A4A1A60026822F4802202600548A5
:100C90000C30016002495806803908607047000036
:100CA00088ED00E000380240FFFFF6FE103000241F
:100CB000FEE702E008C8121F08C1002AFAD17047F7
:100CC0007047002001E001C1121F002AFBD17047CC
:100CD000FFF72AFCFFF78AFFFFF724FF00221146E7
:100CE0000620FFF77FFC0620FFF770FC474C00262C
:100CF00066602660464F474D4FF400694FF4805AB6
:100D00004FF40058206890B120680128FAD1494674
:100D10002846FFF7F2FB51462846FFF7EEFB414617
:100D20002846FFF7EAFBC820FFF7CCFAEAE70221E2
:100D30003846FFF7DDFB0028606827D0C8B30128DC
:100D4000E0D149462846FFF7D8FB40F2DC5B584625
:100D5000FFF7B8FA41462846FFF7CFFB5146284631
:100D6000FFF7CBFB5846FFF7ADFA41462846FFF7A1
:100D7000C4FB49462846FFF7C0FB5846FFF7A2FAD6
:100D800051462846FFF7B9FB5846CDE740B3012846
:100D9000B8D1002249462846FFF7B3FB002251464E
:100DA0002846FFF7AEFB002241462846FFF7A9FB85
:100DB00066604FF400413846FFF79AFB10B34FF4DA
:100DC00080413846FFF794FBF0B141463846FFF7C3
:100DD0008FFB002896D141462846FFF78EFB91E70E
:100DE000002249462846FFF78CFB00225146284640
:100DF000FFF787FB002241462846FFF782FB0120D0
:100E000060609EE74946E7E75146E5E700000020BD
:100E10000008024000100240000000000000000036
:100E20000102030406070809480E0008000000201C
:100E300018000000B20C0008600E00081800002026
:100E400000040000C20C00080000000000000000C8
:100E50000100000010000000000000000024F40069
:040000050800019955
:00000001FF
