:020000040800F2
:1000000028050020AD0100086F1D0008F31B000843
:100010006D1D0008F1070008C5230008000000005E
:10002000000000000000000000000000A91D000802
:10003000F307000800000000A71D0008AD1D000820
:10004000C7010008C7010008C7010008C701000870
:10005000C7010008C7010008C7010008C701000860
:10006000C7010008C7010008C7010008C701000850
:10007000C7010008C7010008C7010008C701000840
:10008000C7010008C7010008C10600080000000001
:10009000000000000000000000000000C701000890
:1000A000C7010008C7010008C7010008C701000810
:1000B000C7010008851E0008C7010008C701000825
:1000C000C7010008C7010008C7010008C7010008F0
:1000D000C7010008C7010008C701000800000000B0
:1000E000C7010008C7010008C701000800000000A0
:1000F000000000000000000000000000C701000830
:1001000000000000C7010008C7010008C70100087F
:1001100000000000000000000000000000000000DF
:10012000C7010008C7010008C7010008C70100088F
:10013000C7010008000000000000000000000000EF
:10014000000000000000000000000000C7010008DF
:10015000C7010008C7010008C7010008B92300084B
:10016000C7010008C70100080000000000000000EF
:10017000000000000000000000000000000000007F
:1001800000000000C701000800000000000000009F
:10019000C7010008C7010008DFF80CD000F07EFAA4
:1001A000004800475D2700082805002006488047D2
:1001B00006480047FEE7FEE7FEE7FEE7FEE7FEE74C
:1001C000FEE7FEE7FEE7FEE7311E000899010008A2
:1001D0002DE9F05F0546002092469B46884606467C
:1001E000814640241BE0284641464746224600F00F
:1001F0009FF953465A46C01A914110D311461846EA
:10020000224600F086F92D1A67EB01084F46224678
:100210000120002100F07DF917EB00094E41201E5E
:10022000A4F10104DFDC484631462A464346BDE8D6
:10023000F09FD2B201E000F8012B491EFBD27047BB
:100240000022F6E710B513460A4604461946FFF7A2
:10025000F0FF204610BD2DE9FE4F804681EA0300E5
:10026000C00F0C46009021F0004123F00045B8EB90
:100270000200A94105D24046214690461C460B4645
:10028000024623F00040104347D0270DC7F30A0071
:10029000C3F30A510290401A019040286BDAC3F36D
:1002A000130040F4801B0098924620B10023D2EB4B
:1002B000030A63EB0B0B01985946C0F1400250460C
:1002C00000F027F906460D4650465946019A00F0BF
:1002D0003FF910EB08006141002487EA115284EADB
:1002E000E7731A4340D0009A62B3019A012A4FEA99
:1002F000075215DC001B61EB02014FF0004202EADD
:100300000752CDE90042001C41F5801132462B46D0
:1003100000F076F903B0BDE8F08F40462146F9E7DA
:10032000001B61EB0201001C41F5801300185B41CA
:100330002018A2F5001747EB030140EAD570B61963
:100340006D4111E06D084FEA360645EAC0754FEA87
:100350000752001B61EB0201001C41F580114908A6
:100360004FEA30000019514132462B4603B0BDE838
:10037000F04F00F036B90098012240000023D0EB86
:10038000020263EBE073009821464FEAE074B8EB99
:10039000000061EB0401E9E783F000435BE781F0D3
:1003A000004158E72DE9FE4F81EA030404F00044C0
:1003B00021F0004100944FF0000B23F0004350EA7D
:1003C00001045ED052EA03045BD0C3F30A54C1F3C4
:1003D0000A552C44A4F2F3340194A0FB0254C1F357
:1003E000130141F48011C3F3130343F4801301FBA1
:1003F000024400FB034E840A970A44EA815447EA08
:100400008357A4FB076802958D0A05FB07854FEA11
:10041000932C04FB0C542705029D4FEA065847EA2B
:100420001637B5EB08056EEB070C870E920E47EA00
:10043000811742EA8312A7FB0201B6EB0B0164EBC2
:1004400000042B0D43EA0C335E1844EB1C50DA46D3
:100450005146E7FB0201C5F313044FEA0B3343EAAD
:1004600014534FEA0432019C43EA0603A4F10C043E
:100470000294009CCDE900B400F0C2F803B0BDE8DE
:10048000F08F00200146F9E700F0004230F0004014
:100490000AD0C10D01F56071C0F3160042EA0151A6
:1004A000C20840071143704700200146704701F021
:1004B000004330B421F0004150EA010206D00A0D99
:1004C000A2F56072C1F31301002A02DC30BC0020E7
:1004D0007047440F44EAC104C100E01830BC00EB8F
:1004E000C25000F047B830B50B460146002020222C
:1004F000012409E021FA02F59D4205D303FA02F531
:10050000491B04FA02F52844151EA2F10102F1DC90
:1005100030BD202A04DB203A00FA02F100207047A7
:100520009140C2F1200320FA03F319439040704731
:10053000202A04DB203A21FA02F00021704721FA38
:1005400002F3D040C2F1200291400843194670479F
:10055000202A06DBCB17203A41FA02F043EAE07387
:1005600006E041FA02F3D040C2F120029140084374
:10057000194670470029A8BF7047401C490008BFB2
:1005800020F00100704710B4B0FA80FC00FA0CF0C3
:1005900050EA010404BF10BC704749B1CCF12004FB
:1005A00021FA04F411FA0CF118BF01212143084388
:1005B000A3EB0C01CB1D4FEA00614FEA102042BFB4
:1005C000002010BC704700EBC35010440029A4BFAA
:1005D00010BC7047401C490008BF20F0010010BC4F
:1005E000704710B5141E73F1000408DA401C41F185
:1005F000000192185B411A4301D120F0010010BDA7
:100600002DE9F04D92469B4611B1B1FA81F202E01C
:10061000B0FA80F220329046FFF77BFF04460F4687
:1006200040EA0A0041EA0B0153465A46084313D0F8
:10063000114653EA010019D0C8F140025046FFF7B5
:1006400077FF05460E46504659464246FFF761FF82
:10065000084305D0012004E020463946BDE8F08D6E
:100660000020054346EAE0762C4337430A986305A9
:10067000E40AA0EB08000022FD0A44EA47540A30CD
:1006800002D500200146E9E7010510196941DDE9BD
:10069000084500196941BDE8F04DA2E7064C074D39
:1006A00006E0E06840F0010394E807009847103442
:1006B000AC42F6D3FFF774FDC42F0008E42F000806
:1006C000014800F048B9000050000020454910B52D
:1006D0004A6822F440324A604A6843681A434A60D2
:1006E00001684A6822F480724A6001684A680369B6
:1006F00042EA03224A6001684A6822F040724A6076
:1007000001684A6883681A434A6001688A6822F46B
:1007100000628A6001688A68C3681A438A60816AD5
:100720006FF07062D14201688A6822F070628A605C
:1007300001688A680CD0836A1A438A6001688A68F3
:1007400022F040528A6001688A68C36A1A4301E055
:1007500022F040528A6001688A6822F002028A60B0
:1007600001688A68836942EA43028A60016A002953
:1007700001684A680FD042F400624A6001684A6822
:1007800022F460424A6001684A68174C436A04EBED
:1007900043331A4301E022F400624A600168CA6AE6
:1007A00022F47002CA620168CA6A838B0F4C04EBA0
:1007B00003531A43CA6201688A6822F400728A608D
:1007C00001688A68036B42EA43228A6001688A688A
:1007D00022F480628A6001688A68406942EA802067
:1007E000886010BD0023014000E0FFFF0000F0FF23
:1007F000FEE770477047000078B50024009490F839
:100800003C20012A19D0012280F83C200A680723E5
:100810000568092A13D9EE680A3A02EB42029340AE
:100820009E43EE600A788B680A3A02EB42029340DC
:100830000268D5682B43D36010E0022078BD2E6992
:1008400002EB420293409E432E610A788B6802EBD2
:1008500042029340026815692B4313614A681F23C3
:10086000072A13D205686E6B521E02EB8202934078
:100870009E436E630B790A885B1E92B203EB83037F
:100880009A4003685D6B2A435A6327E005680D2A86
:1008900012D22E6BD21F02EB820293409E432E6334
:1008A0000B790A88DB1F92B203EB83039A4003683B
:1008B0001D6B2A431A6311E0EE6A0D3A02EB8202C5
:1008C00093409E43EE620B790A880D3B92B203EB94
:1008D00083039A400368DD6A2A43DA62174B05688E
:1008E000154A9D4206D10D68122D03D1556845F475
:1008F0008005556005689D4219D1114D0B68AB42CA
:1009000001D0112B13D1536843F4000353600968DD
:10091000A9420CD10B490C4A0968B1FBF2F101EB79
:100920008101490000E0491E00910029FBD180F8B7
:100930003C40002078BD0000002301400020014021
:10094000120000104C00002040420F00704770471A
:100950000068C06C704770B5044600680168426862
:10096000C1F34001C2F3401251B34AB3216CC9062E
:1009700003D4216C41F400712164816811F0405F5F
:1009800017D1A169A9B9C16A11F4700F02D08168A9
:1009900049050ED4416821F020014160206C20F40B
:1009A00080702064206CC00403D4206C40F00100EF
:1009B00020642046FFF7CAFF21686FF0120008602C
:1009C000206801684268C1F38001C2F3C01289B394
:1009D00082B3216CC90603D4216C41F40051216417
:1009E000816811F4401F1ED1816B11F4401F02D0A9
:1009F0008168490517D44168490514D4816811F00C
:100A0000405F10D1A16971B9416821F08001416056
:100A1000206C20F480502064206CC00503D4206C2E
:100A200040F0010020642046FFF7E4FE21686FF0EB
:100A30000C00086020680168426811F0010FC2F3E1
:100A400080120ED06AB10068C0070AD0206C40F452
:100A500080302064204600F046F821686FF00100E5
:100A60000860206801684268C1F34011C2F38062E7
:100A700000290DD0002A0BD0616C41F002016164A5
:100A80006FF0200505602046FFF761FF20680560D4
:100A900070BD70B504004FF0000503D0206C002637
:100AA00010B107E0012070BD666484F83C60204608
:100AB00000F01AF8206CC00610D4206C20F4885086
:100AC00040F0020020642046FFF700FE6664206CC0
:100AD00020F0020040F00100206400E0012584F8CD
:100AE0003C60284670BD704710B586B0044614219E
:100AF0006846FFF7A5FB1149206888421CD11048C1
:100B00000021026842F480720260006800F4807084
:100B100005900B481438026842F001020260006838
:100B200000F001000590022000900320CDE90101B2
:100B30006946044800F0DCF806B010BD0020014012
:100B400044380240000002402DE9F04104460068AC
:100B50000D4681684FF0000749050BD58068C00538
:100B600008D5206C40F02000206484F83C700120FF
:100B7000BDE8F08100F08EF906460FE0681C0DD04C
:100B800025B100F087F9801BA84207D9206C40F0FE
:100B90000400206484F83C700320E9E720680068C2
:100BA0008007EBD521686FF012000860206C40F4DC
:100BB000007020642068816811F0405F13D1A16942
:100BC00089B9C16A11F4700F02D0806840050AD457
:100BD000206C20F480702064206CC00403D4206C4E
:100BE00040F0010020640020C2E7000018B5002199
:100BF000009190F83C20012A07D0012280F83C2087
:100C000002689368DB0702D011E0022018BD9368E8
:100C100043F001039360204A204B1268B2FBF3F2C9
:100C200002EB420200E0521E0092002AFBD1026851
:100C30009368DB072DD0036C40F20164A34343F4B7
:100C40008073036453685B0505D5036C23F400537C
:100C500043F480530364036CDB0404D5436C23F03A
:100C60000603436400E0416480F83C100C496FF0D7
:100C70002203136049680068C90602D00949884206
:100C800007D1816811F0405F03D1816841F0804154
:100C90008160002018BD00004C00002040420F0081
:100CA000002301400020014090F83510022903D0B4
:100CB0008021416501207047052180F835100068CA
:100CC000016821F0010101600020704770B5044601
:100CD00000F0E0F80546601C02D0044800780444A7
:100CE00000F0D8F8401BA042FAD370BD40000020AD
:100CF0002DE9F84FDFF860B100224FF001084FF006
:100D0000030A4FF00F090BF1040E00BF0B6808FA3D
:100D100002F42340A3426ED14D68022D01D0122D62
:100D20000ED1D50800EB850CDCF820505607F70EE5
:100D300009FA07F6B5430E69BE402E43CCF8206091
:100D4000066855000F790AFA05FC07F0030726EA42
:100D50000C06AF40374307604E68012E05D0022EC7
:100D600003D0112E01D0122E0ED18668CF6826EA4C
:100D70000C06AF40374387604668A6430C79C4F33E
:100D80000014944034434460C6688C6826EA0C061C
:100D9000AC403443C4604C68E40056D52F4C256801
:100DA00045F480452560246822F0030504F480445E
:100DB00000942B4C2E19D6F8084895072F0F09FAE6
:100DC00007F5AC43274DA84201D1002515E0264D7B
:100DD000A84201D1012510E0244DA84201D10225ED
:100DE0000BE0234DA84201D1032506E0214DA84286
:100DF00002D1042501E028E00725BD402543C6F8BF
:100E00000858DBF800405D464E689C43F60300D569
:100E10001C432C60DEF8004075464E689C43B603C8
:100E200000D51C432C600C4D08352C684E689C4343
:100E3000F60200D51C432C60074D0C352C684E681B
:100E40009C43B60200D51C432C60521C102AFFF4B0
:100E50005DAFBDE8F88F0000003C0140443802401F
:100E6000003001400000024000040240000802403F
:100E7000000C0240001002400069084000D0012030
:100E8000704742694A40426170470AB181617047C8
:100E90000904FBE70148806870470000400000201B
:100EA0000248816802781144816070474000002048
:100EB0000B4810B5016841F400710160016841F40C
:100EC00080610160016841F480710160032000F0DD
:100ED0006DF8002000F006F800F024F8002010BDA6
:100EE000003C024070B50D4D04464FF47A712878ED
:100EF000B1FBF0F00A490968B1FBF0F000F0E0FA4C
:100F000048B9102C07D200222146501E00F02EF8BE
:100F100000206C6070BD012070BD0000400000200A
:100F20004C0000200A4808B5016841F48041016086
:100F3000006800F4804000900548001F016841F0FF
:100F400080510160006800F08050009008BD0000F2
:100F50004438024000F01F02012191404009800006
:100F600000F1E020C0F8001170470000F0B40E4B13
:100F70001B680C46C3F30223C3F10705042D00D9F7
:100F80000425191D072901D2002300E0DB1E0126DC
:100F900006FA05F1491E214099409E40761E1640F2
:100FA0003143F0BC00F0EFBE0CED00E0064900F06C
:100FB000070208684FF6FF03184040EA0220034A80
:100FC00010430860704700000CED00E00000FA05D7
:100FD0002DE9F0470E46050065D0DFF81481D8F8FA
:100FE0000000F7B200F00F00B04207D288F800709E
:100FF000D8F8000000F00F00B04254D128683D4CF2
:10100000810712D5400703D5206840F4E0502060E6
:101010002878000703D5206840F4604020602068ED
:10102000A96820F0F000084320602878C0072DD080
:10103000304968680839012812D0022813D00328E3
:1010400011D00968890700292DDA216821F00301F0
:1010500001432160FFF71EFF814641F2883A0EE00E
:1010600009688903EFE709688901ECE7FFF712FFD8
:10107000A0EB0901514502D90320BDE8F0872068A3
:10108000696800F00C00B0EB810FEFD1D8F80010C8
:10109000404601F00F01B14207D90770006800F027
:1010A0000F00B04201D00120E7E72878400705D5BE
:1010B0002068E96820F4E0500843206028780007A1
:1010C00006D52068296920F4604040EAC10020600C
:1010D00000F036F82168084AC1F30311515CC8409A
:1010E000064908600020FFF7FDFE0020C5E700006C
:1010F000003C024008380240AC2F00084C000020A1
:101100000448054900680968044AC1F38221515C1A
:10111000C84070474C00002008380240BC2F00082F
:101120000448054900680968044AC1F34231515C2A
:10113000C84070474C00002008380240BC2F00080F
:10114000154810B5006810F00C02144813D014496B
:10115000042A0FD0082A0ED10F4C241F22682368BE
:1011600002F03F025B0207D52068C0F38810A0FBA5
:10117000010106E0084610BD2168C1F38811A1FBFA
:1011800000010023FFF724F82168C1F30141491C45
:101190004900B0FBF1F010BD083802400024F40013
:1011A00040787D012DE9F84F050076D02878DFF8EA
:1011B000F8B2BE4CC00749D0DBF800105846C1F366
:1011C0008101012908D00068C0F3810002280AD1FA
:1011D000201D0068400206D52068800336D5686867
:1011E0000028E2D032E06868B0F5803F10D0B0F55A
:1011F000A02F206810D020F480302060206820F4D8
:10120000802020606868A0B1FFF744FE06460CE02D
:10121000206840F48030F4E740F480202060F7E755
:10122000FFF738FE801B642873D820688003F7D549
:101230000CE0FFF72FFE064605E000BFFFF72AFE91
:10124000801B6428F0D820688003F7D42878DFF862
:10125000608280074FF000093ED5DBF80010584649
:1012600011F00C0F09D00068C0F3810002280BD1E7
:101270008D48001F0068400206D42068800715D5FD
:10128000E868012809D111E0E868B8B10120C8F880
:101290000000FFF7FFFD064605E002E1FFF7FAFD5B
:1012A000801B0228C0D820688007F7D520682969EC
:1012B00020F0F80040EAC10020600DE0C8F800907E
:1012C000FFF7E8FD064604E0FFF7E4FD801B022877
:1012D0001FD820688007F7D42878000722D5724EDF
:1012E000744869696C3671B101210160FFF7D2FD64
:1012F000074604E0FFF7CEFDC01B022809D830687E
:101300008007F7D50EE0C0F80090FFF7C3FD074651
:1013100005E083E0FFF7BEFDC01B02287ED83068E1
:101320008007F7D42878400768D5DFF87CA100272C
:101330000AF1380ADAF80000C0000BD4DAF800101D
:1013400041F08051CAF80010DAF80000012700F0DF
:1013500080500090584E3068C00510D4306840F47A
:1013600080703060FFF796FD009005E0FFF792FD7A
:101370000099401A022851D83068C005F6D54A4E67
:10138000A868683601280FD00528306810D020F0F2
:1013900001003060306820F004003060A868B8B107
:1013A000FFF778FD00900FE0306840F00100F4E7AF
:1013B00040F004003060F7E7FFF76CFD0099411A38
:1013C00041F28830814264D830688007F4D50EE05D
:1013D000FFF760FD009007E0FFF75CFD0099411A00
:1013E00041F28830814254D830688007F4D42FB15C
:1013F000DAF8001021F08051CAF80010A869C0B3D3
:10140000DBF80010C1F3810102294AD002284846C6
:1014100007D0C8F86000FFF73DFD00E039E0054661
:101420003AE04746C8F86000FFF734FD064604E09E
:10143000FFF730FD801B02282BD820688001F7D4ED
:10144000D5E907010843A96A1C4A490802EB014192
:101450006A6A41EA8211084395F82C1040EA01615A
:101460001148001F016001203866FFF713FD054693
:1014700005E014E0FFF70EFD401B022809D82068A4
:101480008001F7D50BE000BFFFF704FD401B0228E9
:1014900002D90320BDE8F88F20688001F4D4002031
:1014A000F8E70120F6E70000083802400038024063
:1014B00000004742800E4742007000400000FFFFDE
:1014C00010B5401EB0F1807F01D3012010BD4FF058
:1014D000E02460610F21601700F055FC0020A0613E
:1014E00007202061002010BD7047704730B590F88C
:1014F0003820012A20D0012280F83820022380F8E9
:10150000393003685C6824F070045C6003685C68D0
:101510000D682C435C6003689C6824F080049C6028
:1015200003689C6849680C439C6080F8392000215E
:1015300080F83810084630BD022030BD10B50400D8
:1015400003D094F8390010B107E0012010BD00204D
:1015500084F83800204600F00DF8022084F83900A5
:10156000211D206800F094FC012084F8390000203F
:1015700010BD000008B500680649884208D1064839
:10158000016841F002010160006800F00200009073
:1015900008BD000000040040403802400168CA68ED
:1015A00042F00102CA600068016841F00101016077
:1015B0000020704770B5044690F83800012817D015
:1015C000012584F83850022084F8390020688268A8
:1015D00022F0770222F47F4282600868502837D0D8
:1015E0000DDC202859D005DC88B3102841D151E00A
:1015F000022070BD302853D040283AD13FE0602807
:101600002ED070280BD0B0F5805F03D0B0F5005F0E
:101610002FD110E02068816821F0070115E0CB6828
:10162000D1E90121206800F07BFC2168886840F046
:10163000770088601DE0CB68D1E90121206800F0C7
:101640006FFC2068816841F48041816011E01EE0F8
:10165000CA684968206800F075FC5021206806E0DF
:10166000CA684968206800F07EFC6021206800F0AC
:1016700061FC84F83950002084F8380070BDCA68D5
:101680004968206800F05EFC40212068EFE70021F7
:101690002068ECE710212068E9E720212068E6E7D0
:1016A00030212068E3E7704770B50446006801699F
:1016B0004FF00005C943890715D4C168C94389079C
:1016C00011D4E91E0161012020762068806980071D
:1016D000204602D0FFF7E7FF04E000F098F820462C
:1016E00000F096F8257620680169C943490717D4A8
:1016F000C168C943490713D46FF004010161022096
:1017000020762068806910F4407F204602D0FFF7E1
:10171000CAFF04E000F07BF8204600F079F8257657
:1017200020680169C943090716D4C168C94309077C
:1017300012D46FF008010161042020762068C0698E
:101740008007204602D0FFF7AEFF04E000F05FF80C
:10175000204600F05DF8257620680169C943C90676
:1017600017D4C168C943C90613D46FF010010161D1
:10177000082020762068C06910F4407F204602D0FF
:10178000FFF791FF04E000F042F8204600F040F837
:10179000257620680169C943C90708D1C168C943D2
:1017A000C90704D1891E0161204600F033F8206882
:1017B0000169C943090609D4C168C943090605D4AA
:1017C0006FF0800101612046FFF78EFE20680169FD
:1017D000C943490609D4C168C943490605D46FF015
:1017E00040010161204600F059F820680169C943B1
:1017F00089060BD4C168C943890607D46FF020015C
:1018000001612046BDE87040FFF76FBE70BD7047B4
:10181000704700002DE9F04100681D49884222D13F
:101820001C4C606801281ED1226AC1021A48E2B12C
:10183000226A8514012A1DD0226A8E00022A1BD03A
:10184000226A032A1ED0226A042A0CD10746FFF717
:1018500018FB29463846FFF714FB31463846FFF798
:1018600010FB00202062BDE8F081FFF70AFB206A30
:10187000401CF7E72946F8E70546FFF702FB31462B
:101880002846F2E70646FFF7FCFA29463046ECE721
:101890000004004000000020001002407047704724
:1018A00070B5026804461068D168536910F00F0FD4
:1018B00050D003F0010501F4907635435DD0C207A6
:1018C00005D0CA0503D5E26B42F00102E26342078C
:1018D00005D5DA0703D0E26B42F00202E263820729
:1018E00005D5DA0703D0E26B42F00402E263020797
:1018F00005D5DA0703D0E26B42F00802E263E26B3F
:10190000002A33D0800604D5880602D5204600F090
:1019100052FB20684069E16BC0F38010090700D4D6
:1019200028B3204600F039FB2068416949061AD5E2
:10193000416921F040014161606BA0B11B49016523
:10194000606BFFF7B1F9002810D0606B016DBDE846
:1019500070400847830610D58B060ED52046BDE89B
:10196000704000F028BB2046FFF799FF70BD20466D
:10197000FFF795FF0020E06370BD030606D50B0658
:1019800004D52046BDE8704000F0B2BC4006F3D557
:101990004806F1D5D168204621F04001D1602021D0
:1019A00084F8391000F024F970BD00008B1F000886
:1019B00070B5040004D094F83900002510B106E099
:1019C000012070BD84F83850204600F023F8242010
:1019D00084F839002068C16821F40051C1602046B4
:1019E00000F030FB2068016921F49041016120681A
:1019F000416921F02A0141612068C16841F4005128
:101A0000C160E563202084F8390084F83A000020A2
:101A100070BD000010B586B0044614216846FEF77C
:101A20000FFC13492068884220D11248016841F018
:101A300020010160006800F0200005900D48143876
:101A4000016841F0040101600068694600F004008B
:101A50000590C020009002200190012002900320F8
:101A60000390082004900448FFF742F906B010BD27
:101A70000014014044380240000802402DE9F843B8
:101A8000044690F83A00994616460D4620284FD154
:101A900095B18EB194F83800012849D0012084F81E
:101AA00038000027E763222084F83A00FFF7F2F9B4
:101AB000A6858046E68531E00120BDE8F883E08D0B
:101AC000401EE085A0684346B0F5805F4FF00002FD
:101AD0004FF020012046CDF8009004D000F039FCF2
:101AE00098B10320E9E700F034FC0028F9D120691F
:101AF00000282068406803D0C1B225F8011B0DE022
:101B0000C0F3080125F8021B08E0206900282068BE
:101B1000406801D000F07F0005F8010BE08D00283F
:101B2000CDD1202084F83A0084F838700020C4E732
:101B30000220C2E770472DE9F843044690F83900C7
:101B40001F4616460D46202850D1A5B19EB194F8E7
:101B5000380001284AD0012084F838004FF00008EE
:101B6000C4F83C80212084F83900FFF793F9A6845B
:101B70008146E68426E00120BDE8F883E08C401E23
:101B8000E084A0684B46B0F5805F4FF000024FF054
:101B900080012046009703D000F0DBFBE8B90DE0A0
:101BA00000F0D7FBC8B928882168C0F30800486056
:101BB000206908B16D1C05E0AD1C03E0216815F833
:101BC000010B4860E08C0028D8D14B460022402110
:101BD0002046009700F0BDFB08B10320CCE7202091
:101BE00084F8390084F838800020C5E70220C3E774
:101BF0007047FEE77FB500241048009401940294DA
:101C00000D490394C0E90014046184614FF08071B0
:101C1000046281600A49C0E90A140125C460C561F3
:101C200045610463FEF735FF0095CDE9015469462F
:101C30000248FEF7E1FD7FBD00200140500000207A
:101C40000100000F2DE9F04387B014216846FEF72C
:101C5000F7FA2C480024016841F004010160016892
:101C600001F004010591016841F001010160016882
:101C700001F001010591016841F010010160016866
:101C800001F010010591016841F008010160006850
:101C9000DFF8748000F008004FF4605605900022D1
:101CA00031464046FFF7F1F8DFF860904FF45047B7
:101CB000002239464846FFF7E8F84EF20200CDE927
:101CC0000004694612480294FFF712F80125CDE995
:101CD000005469460F480294FFF70AF80096CDE9D0
:101CE0000154694640460394FFF702F80097CDE996
:101CF0000154694648460394FEF7FAFF07B0BDE871
:101D0000F08300003038024000100240000C024016
:101D1000000802400000024010B586B000241248BE
:101D2000009401940294039404940E490594016074
:101D300048F69F41C0E901144FF4C861C0E903149B
:101D4000FFF7FCFB4FF48050009069460648FFF710
:101D500031FC049404A904480594FFF7C7FB06B0BE
:101D600010BD00000004004098000020FEE770470E
:101D700000F01F02012191404009800000F1E020A5
:101D8000C0F8801170470907090E002806DA00F034
:101D90000F0000F1E02080F8141D704700F1E020F2
:101DA00080F80014704770477047000010B5FFF7C7
:101DB00077F802480168491C016010BD3C00002012
:101DC00010B592B030216846FEF73AFA14210CA8FB
:101DD000FEF736FA14480024016841F08051016092
:101DE000006800F0805011901048016841F44041B3
:101DF00001600068069400F44040119002200090B9
:101E000001200390102004906846FFF7CBF90F20C3
:101E1000CDE90C040E940F9400210CA81094FFF748
:101E2000D7F812B010BD00004038024000700040EA
:101E30001048016841F4700101600F48016841F0E9
:101E4000010101600C4A00210832116002680B4B4D
:101E50001A400260031D0A4A1A60026822F48022B6
:101E6000026005480C30016002495806803908605C
:101E70007047000088ED00E000380240FFFFF6FEEA
:101E8000103000240148FFF70FBC0000980000202C
:101E9000F0B502681B4B1C4C9F031C4D1C4E984216
:101EA00007D0B84205D0A04203D0A84201D0B0422A
:101EB00004D122F0700C4A6842EA0C02984210D019
:101EC000B8420ED0A0420CD0A8420AD0B04208D0EE
:101ED000104CA04205D0104CA04202D00F4CA042A2
:101EE00003D122F44074CA68224302608A68C26245
:101EF0000A688262984201D1096901630121416146
:101F0000F0BD000000000140000400400008004057
:101F1000000C0040004001400044014000480140E6
:101F200010B5846842EA032224F47F440A43224322
:101F3000826010BD826822F070020A4342F00701FD
:101F40008160704710B5036A046A24F001040462DA
:101F5000846924F0F00444EA021423F00A020A43DC
:101F60008461026210BD10B5036A23F0100303629E
:101F70008369046A23F4704343EA023224F0A00325
:101F800043EA01118261016210BD10B5806B00212E
:101F9000C185C184FFF783FC10BD0168CA6822F4C3
:101FA0009072CA6001684A6922F001024A612021E8
:101FB00080F83A10704710B590F83A10222901D0F5
:101FC000022010BD8168B1F5805F11D00169002940
:101FD00001681FD0496801F07F03816A4A1C826250
:101FE0000B70C18D491E0904090CC18518D026E06B
:101FF0000269816A002A0268526805D0D2B20A805A
:10200000816A491C8162ECE7C2F308020A80816A96
:10201000891CF7E74A68816A4B1C83620A70E0E713
:102020000168CA6822F49072CA6001684A6922F0A5
:1020300001024A61202180F83A10FFF77BFD002061
:1020400010BD00002DE9F04104460068016921F44B
:102050004052E168114301612168C86849F20C628D
:1020600090432369A268E5691A4363692B431A43C5
:102070000243CA602168486920F44072A069104395
:102080004861E1696425B1F5004F9748974A216896
:102090004FF032083FD0914201D081427CD1FFF70E
:1020A0003FF800EBC00101EB001061688900B0FB54
:1020B000F1F6FFF735F800EBC00101EB00106168A5
:1020C0008900B0FBF1F0B0FBF5F06FF01801484368
:1020D00006EB800108EB0110B0FBF5F000F0F00614
:1020E000FFF71EF800EBC00101EB001061688900EA
:1020F000B0FBF1F0B0FBF5F006EB0016FFF710F8BF
:1021000000EBC00101EB001061688900B0FBF1F742
:10211000FFF706F8D2E0914201D081423DD1FEF7AF
:10212000FFFF00EBC00101EB001061684900B0FB4C
:10213000F1F0B0FBF5F00601FEF7F2FF00EBC00195
:1021400001EB001061684900B0FBF1F7FEF7E8FF12
:1021500000EBC00101EB001061684900B0FBF1F039
:10216000B0FBF5F06FF01801484307EB800108EB76
:10217000C100B0FBF5F000F0F80006EB4006FEF7FA
:10218000CFFF00EBC00101EB001061684900B0FB1C
:10219000F1F7FEF7C5FF3CE055E0FEF7B1FF00EBBD
:1021A000C00101EB001061684900B0FBF1F0B0FB29
:1021B000F5F00601FEF7A4FF00EBC00101EB0010F3
:1021C00061684900B0FBF1F7FEF79AFF00EBC00130
:1021D00001EB001061684900B0FBF1F0B0FBF5F0D5
:1021E0006FF01801484307EB800108EBC100B0FB1A
:1021F000F5F000F0F80006EB4006FEF781FF00EB7B
:10220000C00101EB001061684900B0FBF1F7FEF777
:1022100077FF00EBC00101EB001061684900B0FBE3
:10222000F1F0B0FBF5F06FF01801484307EB8001C7
:1022300008EBC100B0FBF5F000F007002168304466
:102240008860BDE8F081FEF75BFF00EBC00101EBA9
:10225000001061688900B0FBF1F6FEF751FF00EB5A
:10226000C00101EB001061688900B0FBF1F0B0FB28
:10227000F5F06FF01801484306EB800108EB011000
:10228000B0FBF5F000F0F006FEF73AFF00EBC001FE
:1022900001EB001061688900B0FBF1F0B0FBF5F0D4
:1022A00006EB0016FEF72CFF00EBC00101EB00105F
:1022B00061688900B0FBF1F7FEF722FF00EBC00177
:1022C00001EB001061688900B0FBF1F0B0FBF5F0A4
:1022D0006FF01801484307EB800108EB0110B0FBD9
:1022E000F5F000F00F00A9E70014014000100140D4
:1022F00090F83910212901D0022070478168B1F58A
:10230000805F016A0BD04A1C026202680978516042
:10231000C18C491E0904090CC1840ED017E009883C
:102320000268C1F30801516001690029016A02D005
:10233000491C0162ECE7891CFBE70168CA6822F0CE
:102340008002CA600068C16841F04001C16000209D
:1023500070472DE9F041984617460E460446069D03
:102360001DE0681C1BD02DB1FEF794FDA0EB08000A
:10237000A84214D92068C16821F4D071C1602068D6
:10238000416921F001014161202084F8390084F87D
:102390003A00002084F838000320BDE8F08120686E
:1023A000006836EA000004D00020B842D9D00020EE
:1023B000F3E70120F9E700000148FFF771BA0000D8
:1023C000D4000020FEE700000FB4084B10B504A9AC
:1023D00002AA039800F01CF8044602A9002000F0AD
:1023E000B8F9204610BC5DF814FB00005327000824
:1023F00002E008C8121F08C1002AFAD170477047CE
:10240000002001E001C1121F002AFBD1704700002B
:102410002DE9FF4F8BB088460546002606E02528AB
:102420000BD0DDE90D1290476D1C761C2878002832
:10243000F5D10FB03046BDE8F08F0024A146A2468A
:102440000122AE4900E0044315F8013F203B02FAA7
:1024500003F00842F7D128782A2810D06FF02F0215
:102460002878A0F13001092915D809EB890102EB80
:10247000410144F0020400EB01096D1CF0E758F83B
:10248000041B5FEA010903D544F40054C9F10009B3
:1024900044F002046D1C28782E2817D115F8010F7E
:1024A00044F004042A280ED06FF02F022878A0F1FF
:1024B000300109290AD80AEB8A0102EB410100EB3D
:1024C000010A6D1CF2E758F804AB6D1C28786C28E3
:1024D0000FD006DC4C2817D068280DD06A2814D1FC
:1024E00004E0742810D07A280FD10DE044F40014D1
:1024F0000AE044F4801401E044F440146978814215
:1025000002D104F580146D1C6D1C2878692865D0F3
:1025100006DC00288DD0632827D0642806D15DE032
:102520006E2808D073282AD0752877D0DDE90D12DF
:102530009047761CE0E0C4F30250022809D003283B
:102540000DD0D8F8001004280DD00E6008F1040852
:10255000D2E0D8F80010F217C1E90062F6E7D8F827
:1025600000100E80F2E70E70F0E718F8041B8DF8EB
:10257000001000208DF80100EB46012003E058F820
:1025800004BB4FF0FF3061074FF0000701D40AE0B1
:102590007F1C57450DDA8742FADB1BF8071000292C
:1025A000F6D106E07F1C8742FCDB1BF807100029F0
:1025B000F8D1DDE90D23A9EB07008146214600F0A3
:1025C000B1F83044C61904E0DDE90D121BF8010B27
:1025D00090477F1EF8D22146484688E058F8040B01
:1025E000C4F302514FF00A0B032900D100B20429B1
:1025F00000D140B2002802DA40422D2102E021053C
:1026000005D52B218DF82410012104E006E0E10717
:1026100010D02021F6E708AF089113E058F8040B1A
:10262000C4F302514FF00A0B032900D180B20429F0
:1026300000D1C0B20021EEE75946FDF754FF30311A
:1026400007F8011D0028F7D1ADEB070000F1200BC2
:10265000600702D524F4803401E04FF0010ADA4526
:1026600002DDAAEB0B0000E00020824600EB0B012C
:1026700008980144A9EB01000A90E00306D4DDE9C3
:102680000D2321460A9800F04DF806444FF000094A
:1026900008E009A911F80900DDE90D12904709F1D8
:1026A0000109761C08998945F3DBE0030CD5DDE9C7
:1026B0000D2321460A9800F035F8064404E0DDE9D0
:1026C0000D1230209047761CBAF10001AAF1010AE0
:1026D000F5DC05E0DDE90D1217F8010B9047761CDB
:1026E000BBF10001ABF1010BF4DC0A982146DDE9F6
:1026F0000D2300F005F806446D1C97E6092801003B
:102700002DE9F041044600251E461746880404D4EE
:1027100005E039462020B0476D1C641EF9D52846D7
:10272000BDE8F0812DE9F041044600251E469046A3
:10273000C80301D5302700E02027880404D505E030
:1027400041463846B0476D1C641EF9D52846BDE8A1
:10275000F0810A68531C0B60107070472DED028BDE
:10276000FEF7A6FBFFF72CFBFFF76CFAFFF7D4FA96
:10277000FFF740FAFC48FB49002401604FF4165172
:10278000C0E901140C21C460C0E904418461C46142
:10279000FFF70EF9002211461D20FEF7E7FB1D2072
:1027A000FEF7D8FB002211461220FEF7DFFB1220B5
:1027B000FEF7D0FB002211464720FEF7D7FB47204B
:1027C000FEF7C8FBE9484FF47A710068B0FBF1F0FE
:1027D000401EB0F1807F09D24FF0E0214861E44A09
:1027E000F02082F8140D8C6107200861DE483C3827
:1027F000FEF7D4FE1D20FFF7BBFAA0462046DD4CB5
:1028000060602060E06020616061A061E061206242
:102810009FEDD90A606284ED0A0A84ED0B0AD24D5D
:102820002063D64ED64FDFF85CA34035B1EE048A64
:102830004FF001094FF4805B6063CB488438FEF7AA
:10284000D5F9C94805218438FEF77EF908B1606AD8
:1028500004E0C5488438FEF77BF8606228B300EED8
:10286000100AB8EE400ADFEDC80A20EE200A10EE8A
:10287000100AFDF709FE9FEDC51B53EC112BFDF768
:1028800091FDFDF714FEFDF7FFFD9FEDC21B53EC1C
:10289000112BFDF781FDFDF70AFE00EE100ADFEDBA
:1028A000BF0A20EE200A84ED0A0A206BB0B994ED2D
:1028B0000A0AAD4884ED0B0ABDEEC00AB8A14A3041
:1028C00010EE102AFFF780FDA74982B24FF4FA7389
:1028D0004A31A548FFF72FF9C4F8309094ED0B0A60
:1028E000D4ED0A0A30EE080AB4EEE00AF1EE10FA6E
:1028F00001D8012200E000224FF40041AF48FEF76A
:10290000C4FA3220FEF7E2F997494FF4FA730A222B
:1029100040319548FFF7B2F82878542802D04C2867
:1029200022D0A2E06878452825D1A8784D28FBD18F
:10293000E8785028F8D194ED0A0A8B48A0A1BDEEA2
:10294000C00A4A3010EE102AFFF73EFD864982B2D7
:102950004FF4FA734A318448FFF7EDF882480A21B0
:102960004030FDF76DFC80E06878312804D03228D3
:1029700027D0332849D092E0A8784F28FBD1E878B7
:102980004E2802D046280CD089E00122D1025046C0
:10299000FEF77BFA74480A214030FDF751FC8DA107
:1029A00057E0287946287AD100224FF4006150463A
:1029B000FEF76BFA6C480A214030FDF741FC8BA111
:1029C00047E0A8784F286AD1E8784E2802D04628F8
:1029D0000CD064E0012259465046FEF756FA624890
:1029E0000A214030FDF72CFC85A132E028794628E9
:1029F00055D1002259465046FEF747FA5A480A2157
:102A00004030FDF71DFC84A123E0A8784F2846D173
:102A1000E8784E2802D046280CD040E0012251032D
:102A20005046FEF732FA50480A214030FDF708FCC4
:102A30007EA10EE02879462831D100224FF40051C2
:102A40005046FEF722FA48480A214030FDF7F8FBCD
:102A50007CA145484A30FFF7B7FC434982B24FF4A6
:102A6000FA734A314048FFF766F82878532816D1A0
:102A70006878492813D1A878532810D1E8784F28CE
:102A80000DD12879462802D04E2806D007E0687973
:102A9000462804D1C4F8089001E00220A06001217A
:102AA0006D48FEF7E9F9012805D1206918B93068A9
:102AB0003860C4F8109001216748FEF7DDF901285D
:102AC00004D130683968401A642804D8A068012805
:102AD00001D002280BD1C4F81080206840B1A06852
:102AE000012805D02168012920D002281ED0D1E07C
:102AF0001D480A214030FDF7A3FB00224FF400617E
:102B00005046FEF7C2F9002259465046FEF7BDF97D
:102B100000224FF400515046FEF7B7F9C4F8009078
:102B2000C4F804804DA1C4F80880A8E00E480A212A
:102B30004030FDF785FB00224FF400615046FEF760
:102B4000A4F9002259465046FEF79FF900224FF49F
:102B500000515046FEF799F9C4F80080C4F804808B
:102B60008AE0000000140140D40000204C00002046
:102B70000FE000E000000020000000003C0000200A
:102B800038000020001002400000803A6666666649
:102B90006666E63F7B14AE47E17A843F0000C84298
:102BA00054656D706572617475726120616D6269E2
:102BB000656E74653A2025640A000000000C02402E
:102BC00054656D70657261747572613A2025640A8E
:102BD000000000004C616D70617261203120656EF3
:102BE00063656E646964610A000000004C616D7089
:102BF000617261203120617061676164610A000067
:102C00004C616D70617261203220656E63656E6427
:102C10006964610A000000004C616D70617261209E
:102C20003220617061676164610A00004C616D70FF
:102C3000617261203320656E63656E646964610A48
:102C4000000000004C616D70617261203320617082
:102C500061676164610A0000000002405369737497
:102C6000656D61206170616761646F2028737461B4
:102C70006E6279290A000000B5A1C4F80880BB483B
:102C8000FFF7A2FBB94982B24FF4FA73A1F14A00EF
:102C9000FEF751FF2068F8B1206801287FF4CDAD20
:102CA00081030122B248FEF7F0F800225946B048ED
:102CB000FEF7EBF800224FF400615046FEF7E5F80E
:102CC000002259465046FEF7E0F800224FF400512A
:102CD0005046FEF7DAF8B0E500224FF48041A448F0
:102CE000FEF7D3F80221A348FEF7C6F828B9E0683A
:102CF00018B930683860C4F80C90606860B9022177
:102D00009C48FEF7B9F838B930683968401A642829
:102D100002D9E06801280FD028784D2808D16878BA
:102D20004F2805D1A878442802D1E878412803D05B
:102D30006068012827D033E08C480A210A38FDF763
:102D40007FFA4FF0E0204FF00051C0F8001101224F
:102D500059468748FEF799F800224FF40061504623
:102D6000FEF793F8002259465046FEF78EF80022EF
:102D70004FF400515046FEF788F8C4F804907EA145
:102D8000C4F80C8036E002217A48FEF775F838B9AD
:102D900030683968401A642802D9E06801280BD0ED
:102DA00028784D2831D168784F282ED1A87844282A
:102DB0002BD1E8784D2828D16C480A210A38FDF734
:102DC0003FFA1D20FEF7D4FF00224FF40061504669
:102DD000FEF75BF8002259465046FEF756F80022EF
:102DE0004FF400515046FEF750F8C4F8048069A132
:102DF000C4F80C805D48FFF7E7FA5C4982B24FF4F3
:102E0000FA73A1F14A00FEF796FE606800287FF48D
:102E100062AF002259465648FEF737F84FF400419A
:102E20005448FEF729F828B9606918B93068386045
:102E3000C4F814904FF400414E48FEF71DF868B9ED
:102E400031683868081A642808D96069012805D1F2
:102E5000C1025046FEF715F8C4F8148094ED0B0A31
:102E6000D4ED0A0A30EE080AB4EEE00AF1EE10FAE8
:102E70001FDB4FF480413F48FDF7FEFF28B9A069F2
:102E800018B930683860C4F818904FF48041394858
:102E9000FDF7F2FF68B930683968401A642808D92C
:102EA000A069012805D159465046FDF7EAFFC4F84C
:102EB0001880606B10B1012813D024E094ED0B0A48
:102EC00070EE080A94ED0A0AF4EEC00AF1EE10FA68
:102ED00019D2012259465046FDF7D7FFC4F8349065
:102EE00011E094ED0B0AD4ED0A0A30EE080AB4EEB4
:102EF000E00AF1EE10FA06DB002259465046FDF7D3
:102F0000C4FFC4F834804FF400511A48FDF7B4FFF1
:102F100028B9E06918B930683860C4F81C904FF4DB
:102F200000511448FDF7A8FF00287FF4D4AE3168A3
:102F30003868081A64287FF6CEAEE0690128F4D11B
:102F400041035046FDF79DFFC4F81C8075E4000066
:102F500053697374656D6120656E2066756E636973
:102F60006F6E616D69656E746F0A00001E0100204E
:102F7000000C02400008024043616D62696F2061ED
:102F8000206D6F646F206175746F6D617469636F1C
:102F90000A00000043616D62696F2061206D6F64FB
:102FA0006F206D616E75616C0A000000000000000A
:102FB00000000000010203040607080900000000E9
:102FC00001020304E42F000800000020500000006C
:102FD000F02300083430000850000020D80400001E
:102FE00000240008000000000000000000000000B5
:102FF00000000000000000000000000000000000D1
:1030000000000000000000000000000000000000C0
:1030100000000000000000000000000000000000B0
:10302000000000000100000010000000000000008F
:043030000024F40084
:040000050800019955
:00000001FF
